{
  "rlp": "f9049ff901f6a045ce9fae124eb06c68394ffb53edd1c0e46cf957185b18a3c43821266b71f26da01dcc4de8dec75d7aab85b567b6ccd41ad312451b948a7413f0a142fd40d49347940100000000000000000000000000000000000000a009b41b08cacf63fd56a588d65befca63f4799dd457ccfcffc1b7ff8b7c899026a0a7c68fc60a677940cb5c3e2ecbeff781ba95eb2dc5edbe041d1a569fa98b9070a03a26b9965725737c7bdaa1de02677d782a1148027aa3a5bbf29658d16013cb4cb901000000000000000000000000000000000000000000000000000000000000000000000000000000000000000000000000000000000000000000000000000000000000000000000000000000000000000000000000000000000000000000000000000000000000000000000000000000000000000000000000000000000000000000000000000000000000000000000000000000000000000000000000000000000000000000000000000000000000000000000000000000000000000000000000000000000000000000000000000000000000000000000000000000000000000000000000000000000000000000000000000000000000000000000000000000000083020000038347e7c48301897a1e80a00000000000000000000000000000000000000000000000000000000000000000880000000000000000f902a2b9011d01f9011901030a8301e24194000000000000000000000000000000000000aaaa8080f8b6f859940000000000000000000000000000000000000000f842a00000000000000000000000000000000000000000000000000000000000000000a00000000000000000000000000000000000000000000000000000000000000000f859940100000000000000000000000000000000000000f842a00000000000000000000000000000000000000000000000000000000000000000a0010000000000000000000000000000000000000000000000000000000000000001a0748de538b4a9502e4bf7d7c29ee80dcd342e802518257260c318877c1306e455a043faaa4d106d49940a193f6016c10159a9013074951ff718404b1f717d274887b9011d01f9011901040a8301e24194000000000000000000000000000000000000aaaa8080f8b6f859940000000000000000000000000000000000000000f842a00000000000000000000000000000000000000000000000000000000000000000a00000000000000000000000000000000000000000000000000000000000000000f859940100000000000000000000000000000000000000f842a00000000000000000000000000000000000000000000000000000000000000000a0010000000000000000000000000000000000000000000000000000000000000080a0a831c9d4a1e27dbc92a5558cdc3006a42d5cd38c6e18052ab280674e7e6d1009a04c09b35aba855dd92c2e67411f2345374ab54c110cc9f248dea3777310a11a35f860050a8301e24194000000000000000000000000000000000000aaaa808026a0f3d58c384589aa560311587a19a39acfbed506b50b6332455f8a01b7a4a0b208a0710821dcc271fbf3bf0cd2ed45ebf7d212095b2d7b743c6ddc5f0bd220c692b4c0",
  "json": {
    "header": {
      "parentHash": "0x45ce9fae124eb06c68394ffb53edd1c0e46cf957185b18a3c43821266b71f26d",
      "sha3Uncles": "0x1dcc4de8dec75d7aab85b567b6ccd41ad312451b948a7413f0a142fd40d49347",
      "miner": "0x0100000000000000000000000000000000000000",
      "stateRoot": "0x09b41b08cacf63fd56a588d65befca63f4799dd457ccfcffc1b7ff8b7c899026",
      "transactionsRoot": "0xa7c68fc60a677940cb5c3e2ecbeff781ba95eb2dc5edbe041d1a569fa98b9070",
      "receiptsRoot": "0x3a26b9965725737c7bdaa1de02677d782a1148027aa3a5bbf29658d16013cb4c",
      "logsBloom": "0x00000000000000000000000000000000000000000000000000000000000000000000000000000000000000000000000000000000000000000000000000000000000000000000000000000000000000000000000000000000000000000000000000000000000000000000000000000000000000000000000000000000000000000000000000000000000000000000000000000000000000000000000000000000000000000000000000000000000000000000000000000000000000000000000000000000000000000000000000000000000000000000000000000000000000000000000000000000000000000000000000000000000000000000000000000000",
      "difficulty": "0x20000",
      "number": "0x3",
      "gasLimit": "0x47e7c4",
      "gasUsed": "0x1897a",
      "timestamp": "0x1e",
      "extraData": "0x",
      "mixHash": "0x0000000000000000000000000000000000000000000000000000000000000000",
      "nonce": "0x0000000000000000",
      "hash": "0x6e9b1043fdb0e72356fbfe34d83f96d8850f573d806e860ab2beade9666290fa"
    },
    "transactions": [
      {
        "type": "0x1",
        "chainId": "0x1",
        "nonce": "0x3",
        "gasPrice": "0xa",
        "gas": "0x1e241",
        "to": "0x000000000000000000000000000000000000aaaa",
        "value": "0x0",
        "input": "0x",
        "accessList": [
          {
            "address": "0x0000000000000000000000000000000000000000",
            "storageKeys": [
              "0x0000000000000000000000000000000000000000000000000000000000000000",
              "0x0000000000000000000000000000000000000000000000000000000000000000"
            ]
          },
          {
            "address": "0x0100000000000000000000000000000000000000",
            "storageKeys": [
              "0x0000000000000000000000000000000000000000000000000000000000000000",
              "0x0100000000000000000000000000000000000000000000000000000000000000"
            ]
          }
        ],
        "v": "0x1",
        "r": "0x748de538b4a9502e4bf7d7c29ee80dcd342e802518257260c318877c1306e455",
        "s": "0x43faaa4d106d49940a193f6016c10159a9013074951ff718404b1f717d274887",
        "hash": "0x418a0f670998b3e1ca5250843306910bb7546acb1c04f491350a8033d912bdaf"
      },
      {
        "type": "0x1",
        "chainId": "0x1",
        "nonce": "0x4",
        "gasPrice": "0xa",
        "gas": "0x1e241",
        "to": "0x000000000000000000000000000000000000aaaa",
        "value": "0x0",
        "input": "0x",
        "accessList": [
          {
            "address": "0x0000000000000000000000000000000000000000",
            "storageKeys": [
              "0x0000000000000000000000000000000000000000000000000000000000000000",
              "0x0000000000000000000000000000000000000000000000000000000000000000"
            ]
          },
          {
            "address": "0x0100000000000000000000000000000000000000",
            "storageKeys": [
              "0x0000000000000000000000000000000000000000000000000000000000000000",
              "0x0100000000000000000000000000000000000000000000000000000000000000"
            ]
          }
        ],
        "v": "0x0",
        "r": "0xa831c9d4a1e27dbc92a5558cdc3006a42d5cd38c6e18052ab280674e7e6d1009",
        "s": "0x4c09b35aba855dd92c2e67411f2345374ab54c110cc9f248dea3777310a11a35",
        "hash": "0x016263d1b70105fb24bba2ff1bae4ec620d7481318e6d0974aa96fb202724c53"
      },
      {
        "type": "0x0",
        "chainId": null,
        "nonce": "0x5",
        "gasPrice": "0xa",
        "gas": "0x1e241",
        "to": "0x000000000000000000000000000000000000aaaa",
        "value": "0x0",
        "input": "0x",
        "accessList": null,
        "v": "0x26",
        "r": "0xf3d58c384589aa560311587a19a39acfbed506b50b6332455f8a01b7a4a0b208",
        "s": "0x710821dcc271fbf3bf0cd2ed45ebf7d212095b2d7b743c6ddc5f0bd220c692b4",
        "hash": "0x703e00e61cd19d8dbbd58a15f885fe3d82954a6c7f1854e64df9d8c9a839d2dd"
      }
    ],
    "uncles": null,
    "receipts": null
  }
}