{
  "rlp": "f909bbf901f6a0160a6eff205005f7e0dc27006b58e64e37b88592077debbc30b44589dbb95a95a01dcc4de8dec75d7aab85b567b6ccd41ad312451b948a7413f0a142fd40d49347940100000000000000000000000000000000000000a02dd6f4e5613640e8ae817f50e3538926b946632953b2ef14f47e21ab2a1f0bcaa0d663e9fec41620bc34664fd2ab65046c6d5de9306d2d710425d01ddd7c767683a09dec9f28e6d236deda6a9d0aeff7271bef8649c01f14232a2a8b59293a4864acb901000000000000000000000000000000000000000000000000000000000000000000000000000000000000000000000000000000000000000000000000000000000000000000000000000000000000000000000000000000000000000000000000000000000000000000000000000000000000000000000000000000000000000000000000000000000000000000000000000000000000000000000000000000000000000000000000000000000000000000000000000000000000000000000000000000000000000000000000000000000000000000000000000000000000000000000000000000000000000000000000000000000000000000000000000000000083020000058347e7c4830371d63280a00000000000000000000000000000000000000000000000000000000000000000880000000000000000f907beb901d401f901d0010a0a8301e24194000000000000000000000000000000000000aaaa8080f9016cf859940000000000000000000000000000000000000000f842a00000000000000000000000000000000000000000000000000000000000000000a00000000000000000000000000000000000000000000000000000000000000000f859940100000000000000000000000000000000000000f842a00000000000000000000000000000000000000000000000000000000000000000a00100000000000000000000000000000000000000000000000000000000000000f859940200000000000000000000000000000000000000f842a00000000000000000000000000000000000000000000000000000000000000000a00200000000000000000000000000000000000000000000000000000000000000f859940300000000000000000000000000000000000000f842a00000000000000000000000000000000000000000000000000000000000000000a0030000000000000000000000000000000000000000000000000000000000000080a0f345e830d6eb32d68ff5e9c2bf35308b891a5901c28bb1c04f6b04313d691cf4a0373dfbd0ffa2339e007dfc5f1a1c4fd3aa73efb9419ebb7e53db6bc84c976240b901d401f901d0010b0a8301e24194000000000000000000000000000000000000aaaa8080f9016cf859940000000000000000000000000000000000000000f842a00000000000000000000000000000000000000000000000000000000000000000a00000000000000000000000000000000000000000000000000000000000000000f859940100000000000000000000000000000000000000f842a00000000000000000000000000000000000000000000000000000000000000000a00100000000000000000000000000000000000000000000000000000000000000f859940200000000000000000000000000000000000000f842a00000000000000000000000000000000000000000000000000000000000000000a00200000000000000000000000000000000000000000000000000000000000000f859940300000000000000000000000000000000000000f842a00000000000000000000000000000000000000000000000000000000000000000a0030000000000000000000000000000000000000000000000000000000000000001a060f333f746a7b18a39d3a0401eaa346cfc424fcb054cffa349f99130597b6f4aa02ca60577b215332a1c248e85b9b93664054af3701f0a6f5c553e180e7dcdb4e8b901d401f901d0010c0a8301e24194000000000000000000000000000000000000aaaa8080f9016cf859940000000000000000000000000000000000000000f842a00000000000000000000000000000000000000000000000000000000000000000a00000000000000000000000000000000000000000000000000000000000000000f859940100000000000000000000000000000000000000f842a00000000000000000000000000000000000000000000000000000000000000000a00100000000000000000000000000000000000000000000000000000000000000f859940200000000000000000000000000000000000000f842a00000000000000000000000000000000000000000000000000000000000000000a00200000000000000000000000000000000000000000000000000000000000000f859940300000000000000000000000000000000000000f842a00000000000000000000000000000000000000000000000000000000000000000a0030000000000000000000000000000000000000000000000000000000000000001a0479dfabb47ad82e5e5c1b0629fc87b715e3a0ba698c6bee3ff9bd29ef84a1e93a0381d0c2994e6e97f646ca1864ec1f66ae0c47a8fcfdef882041e6db8d413d1d0b901d401f901d0010d0a8301e24194000000000000000000000000000000000000aaaa8080f9016cf859940000000000000000000000000000000000000000f842a00000000000000000000000000000000000000000000000000000000000000000a00000000000000000000000000000000000000000000000000000000000000000f859940100000000000000000000000000000000000000f842a00000000000000000000000000000000000000000000000000000000000000000a00100000000000000000000000000000000000000000000000000000000000000f859940200000000000000000000000000000000000000f842a00000000000000000000000000000000000000000000000000000000000000000a00200000000000000000000000000000000000000000000000000000000000000f859940300000000000000000000000000000000000000f842a00000000000000000000000000000000000000000000000000000000000000000a0030000000000000000000000000000000000000000000000000000000000000080a08d36697d1b52d80b56113e088245173946fde2e72c29ffa2d0289b39dc9100e5a05758c471f9ca7c197e7e7f9b29cb134dc8f4e67aec83c8a52e05b8831a577e85f8600e0a8301e24194000000000000000000000000000000000000aaaa808026a0db585ae1362cccecf8c2cf6953207d4cfe0eb30aaddf750aa55a0b8a459ab22aa053aac6352d9a6b9599dfa512b2a01a1cf3498428cf96136fab5ec7c305acb462c0",
  "json": {
    "header": {
      "parentHash": "0x160a6eff205005f7e0dc27006b58e64e37b88592077debbc30b44589dbb95a95",
      "sha3Uncles": "0x1dcc4de8dec75d7aab85b567b6ccd41ad312451b948a7413f0a142fd40d49347",
      "miner": "0x0100000000000000000000000000000000000000",
      "stateRoot": "0x2dd6f4e5613640e8ae817f50e3538926b946632953b2ef14f47e21ab2a1f0bca",
      "transactionsRoot": "0xd663e9fec41620bc34664fd2ab65046c6d5de9306d2d710425d01ddd7c767683",
      "receiptsRoot": "0x9dec9f28e6d236deda6a9d0aeff7271bef8649c01f14232a2a8b59293a4864ac",
      "logsBloom": "0x00000000000000000000000000000000000000000000000000000000000000000000000000000000000000000000000000000000000000000000000000000000000000000000000000000000000000000000000000000000000000000000000000000000000000000000000000000000000000000000000000000000000000000000000000000000000000000000000000000000000000000000000000000000000000000000000000000000000000000000000000000000000000000000000000000000000000000000000000000000000000000000000000000000000000000000000000000000000000000000000000000000000000000000000000000000",
      "difficulty": "0x20000",
      "number": "0x5",
      "gasLimit": "0x47e7c4",
      "gasUsed": "0x371d6",
      "timestamp": "0x32",
      "extraData": "0x",
      "mixHash": "0x0000000000000000000000000000000000000000000000000000000000000000",
      "nonce": "0x0000000000000000",
      "hash": "0xe5c7fd187ef4075bb9a3bd160b0e568be53ea693b284d20936277c249797f881"
    },
    "transactions": [
      {
        "type": "0x1",
        "chainId": "0x1",
        "nonce": "0xa",
        "gasPrice": "0xa",
        "gas": "0x1e241",
        "to": "0x000000000000000000000000000000000000aaaa",
        "value": "0x0",
        "input": "0x",
        "accessList": [
          {
            "address": "0x0000000000000000000000000000000000000000",
            "storageKeys": [
              "0x0000000000000000000000000000000000000000000000000000000000000000",
              "0x0000000000000000000000000000000000000000000000000000000000000000"
            ]
          },
          {
            "address": "0x0100000000000000000000000000000000000000",
            "storageKeys": [
              "0x0000000000000000000000000000000000000000000000000000000000000000",
              "0x0100000000000000000000000000000000000000000000000000000000000000"
            ]
          },
          {
            "address": "0x0200000000000000000000000000000000000000",
            "storageKeys": [
              "0x0000000000000000000000000000000000000000000000000000000000000000",
              "0x0200000000000000000000000000000000000000000000000000000000000000"
            ]
          },
          {
            "address": "0x0300000000000000000000000000000000000000",
            "storageKeys": [
              "0x0000000000000000000000000000000000000000000000000000000000000000",
              "0x0300000000000000000000000000000000000000000000000000000000000000"
            ]
          }
        ],
        "v": "0x0",
        "r": "0xf345e830d6eb32d68ff5e9c2bf35308b891a5901c28bb1c04f6b04313d691cf4",
        "s": "0x373dfbd0ffa2339e007dfc5f1a1c4fd3aa73efb9419ebb7e53db6bc84c976240",
        "hash": "0xb7b9c42dcc90d9856bf566ef1744c98fa17393ca720420c4d1dda1098c2f537d"
      },
      {
        "type": "0x1",
        "chainId": "0x1",
        "nonce": "0xb",
        "gasPrice": "0xa",
        "gas": "0x1e241",
        "to": "0x000000000000000000000000000000000000aaaa",
        "value": "0x0",
        "input": "0x",
        "accessList": [
          {
            "address": "0x0000000000000000000000000000000000000000",
            "storageKeys": [
              "0x0000000000000000000000000000000000000000000000000000000000000000",
              "0x0000000000000000000000000000000000000000000000000000000000000000"
            ]
          },
          {
            "address": "0x0100000000000000000000000000000000000000",
            "storageKeys": [
              "0x0000000000000000000000000000000000000000000000000000000000000000",
              "0x0100000000000000000000000000000000000000000000000000000000000000"
            ]
          },
          {
            "address": "0x0200000000000000000000000000000000000000",
            "storageKeys": [
              "0x0000000000000000000000000000000000000000000000000000000000000000",
              "0x0200000000000000000000000000000000000000000000000000000000000000"
            ]
          },
          {
            "address": "0x0300000000000000000000000000000000000000",
            "storageKeys": [
              "0x0000000000000000000000000000000000000000000000000000000000000000",
              "0x0300000000000000000000000000000000000000000000000000000000000000"
            ]
          }
        ],
        "v": "0x1",
        "r": "0x60f333f746a7b18a39d3a0401eaa346cfc424fcb054cffa349f99130597b6f4a",
        "s": "0x2ca60577b215332a1c248e85b9b93664054af3701f0a6f5c553e180e7dcdb4e8",
        "hash": "0x1b57c427bb124ed65ab83db75ddb5af12aeaa66affd902b684b4bab6ebf31817"
      },
      {
        "type": "0x1",
        "chainId": "0x1",
        "nonce": "0xc",
        "gasPrice": "0xa",
        "gas": "0x1e241",
        "to": "0x000000000000000000000000000000000000aaaa",
        "value": "0x0",
        "input": "0x",
        "accessList": [
          {
            "address": "0x0000000000000000000000000000000000000000",
            "storageKeys": [
              "0x0000000000000000000000000000000000000000000000000000000000000000",
              "0x0000000000000000000000000000000000000000000000000000000000000000"
            ]
          },
          {
            "address": "0x0100000000000000000000000000000000000000",
            "storageKeys": [
              "0x0000000000000000000000000000000000000000000000000000000000000000",
              "0x0100000000000000000000000000000000000000000000000000000000000000"
            ]
          },
          {
            "address": "0x0200000000000000000000000000000000000000",
            "storageKeys": [
              "0x0000000000000000000000000000000000000000000000000000000000000000",
              "0x0200000000000000000000000000000000000000000000000000000000000000"
            ]
          },
          {
            "address": "0x0300000000000000000000000000000000000000",
            "storageKeys": [
              "0x0000000000000000000000000000000000000000000000000000000000000000",
              "0x0300000000000000000000000000000000000000000000000000000000000000"
            ]
          }
        ],
        "v": "0x1",
        "r": "0x479dfabb47ad82e5e5c1b0629fc87b715e3a0ba698c6bee3ff9bd29ef84a1e93",
        "s": "0x381d0c2994e6e97f646ca1864ec1f66ae0c47a8fcfdef882041e6db8d413d1d0",
        "hash": "0x6642d59ce47df5df3b0ff96829f56264171dbfca7bdbf8b3caaead85ab17ce9b"
      },
      {
        "type": "0x1",
        "chainId": "0x1",
        "nonce": "0xd",
        "gasPrice": "0xa",
        "gas": "0x1e241",
        "to": "0x000000000000000000000000000000000000aaaa",
        "value": "0x0",
        "input": "0x",
        "accessList": [
          {
            "address": "0x0000000000000000000000000000000000000000",
            "storageKeys": [
              "0x0000000000000000000000000000000000000000000000000000000000000000",
              "0x0000000000000000000000000000000000000000000000000000000000000000"
            ]
          },
          {
            "address": "0x0100000000000000000000000000000000000000",
            "storageKeys": [
              "0x0000000000000000000000000000000000000000000000000000000000000000",
              "0x0100000000000000000000000000000000000000000000000000000000000000"
            ]
          },
          {
            "address": "0x0200000000000000000000000000000000000000",
            "storageKeys": [
              "0x0000000000000000000000000000000000000000000000000000000000000000",
              "0x0200000000000000000000000000000000000000000000000000000000000000"
            ]
          },
          {
            "address": "0x0300000000000000000000000000000000000000",
            "storageKeys": [
              "0x0000000000000000000000000000000000000000000000000000000000000000",
              "0x0300000000000000000000000000000000000000000000000000000000000000"
            ]
          }
        ],
        "v": "0x0",
        "r": "0x8d36697d1b52d80b56113e088245173946fde2e72c29ffa2d0289b39dc9100e5",
        "s": "0x5758c471f9ca7c197e7e7f9b29cb134dc8f4e67aec83c8a52e05b8831a577e85",
        "hash": "0x7087dd064ddd164d8564913acde103d30d1e6ffd3c4b828242ab5662c5d27f98"
      },
      {
        "type": "0x0",
        "chainId": null,
        "nonce": "0xe",
        "gasPrice": "0xa",
        "gas": "0x1e241",
        "to": "0x000000000000000000000000000000000000aaaa",
        "value": "0x0",
        "input": "0x",
        "accessList": null,
        "v": "0x26",
        "r": "0xdb585ae1362cccecf8c2cf6953207d4cfe0eb30aaddf750aa55a0b8a459ab22a",
        "s": "0x53aac6352d9a6b9599dfa512b2a01a1cf3498428cf96136fab5ec7c305acb462",
        "hash": "0xa6ded463647cde7d52f6889b7f3c0a142cf3d82b1d3cca606c72a08ee64129f1"
      }
    ],
    "uncles": null,
    "receipts": null
  }
}