{
  "rlp": "f9025df901f5a0f0962fddf00ed1647996646504666df666ecc558eb8a5bcd65af206a64e79a93a01dcc4de8dec75d7aab85b567b6ccd41ad312451b948a7413f0a142fd40d49347940100000000000000000000000000000000000000a0007b54c20187b01cb2caad4dd377234b591ffc3502590d7b05ef2949785542b2a0076eed3b92e039d9b8e35b21d5603350177b75c35c8ee13654f582f21a92dd69a0ea2fe1d08440864d23add61591d18dd8900e010ceca13b5ae797c699a44b5684b901000000000000000000000000000000000000000000000000000000000000000000000000000000000000000000000000000000000000000000000000000000000000000000000000000000000000000000000000000000000000000000000000000000000000000000000000000000000000000000000000000000000000000000000000000000000000000000000000000000000000000000000000000000000000000000000000000000000000000000000000000000000000000000000000000000000000000000000000000000000000000000000000000000000000000000000000000000000000000000000000000000000000000000000000000000000083020000018347e7c48262de0a80a00000000000000000000000000000000000000000000000000000000000000000880000000000000000f862f860800a8301e24194000000000000000000000000000000000000aaaa808025a04a8784ece5812005fadff24bee6b002f3b736196c97fa73e31a015d89731a9dba07fb3784b5bbd59d2a00acdc86cb84f8b279f5f80b4af9d0e944f06ba5388c811c0",
  "json": {
    "header": {
      "parentHash": "0xf0962fddf00ed1647996646504666df666ecc558eb8a5bcd65af206a64e79a93",
      "sha3Uncles": "0x1dcc4de8dec75d7aab85b567b6ccd41ad312451b948a7413f0a142fd40d49347",
      "miner": "0x0100000000000000000000000000000000000000",
      "stateRoot": "0x007b54c20187b01cb2caad4dd377234b591ffc3502590d7b05ef2949785542b2",
      "transactionsRoot": "0x076eed3b92e039d9b8e35b21d5603350177b75c35c8ee13654f582f21a92dd69",
      "receiptsRoot": "0xea2fe1d08440864d23add61591d18dd8900e010ceca13b5ae797c699a44b5684",
      "logsBloom": "0x00000000000000000000000000000000000000000000000000000000000000000000000000000000000000000000000000000000000000000000000000000000000000000000000000000000000000000000000000000000000000000000000000000000000000000000000000000000000000000000000000000000000000000000000000000000000000000000000000000000000000000000000000000000000000000000000000000000000000000000000000000000000000000000000000000000000000000000000000000000000000000000000000000000000000000000000000000000000000000000000000000000000000000000000000000000",
      "difficulty": "0x20000",
      "number": "0x1",
      "gasLimit": "0x47e7c4",
      "gasUsed": "0x62de",
      "timestamp": "0xa",
      "extraData": "0x",
      "mixHash": "0x0000000000000000000000000000000000000000000000000000000000000000",
      "nonce": "0x0000000000000000",
      "hash": "0xb44579073851e99fe60940bf6217a6eae1908918eb89c2ad8ba7cdd31104aef7"
    },
    "transactions": [
      {
        "type": "0x0",
        "chainId": null,
        "nonce": "0x0",
        "gasPrice": "0xa",
        "gas": "0x1e241",
        "to": "0x000000000000000000000000000000000000aaaa",
        "value": "0x0",
        "input": "0x",
        "accessList": null,
        "v": "0x25",
        "r": "0x4a8784ece5812005fadff24bee6b002f3b736196c97fa73e31a015d89731a9db",
        "s": "0x7fb3784b5bbd59d2a00acdc86cb84f8b279f5f80b4af9d0e944f06ba5388c811",
        "hash": "0x8dea84417453c9cc0dbbcdf9224fc37cbe93b6e8a9ffdb8e7eb3ddeedd43c375"
      }
    ],
    "uncles": null,
    "receipts": null
  }
}