{
  "rlp": "f90321f901f5a0b44579073851e99fe60940bf6217a6eae1908918eb89c2ad8ba7cdd31104aef7a01dcc4de8dec75d7aab85b567b6ccd41ad312451b948a7413f0a142fd40d49347940100000000000000000000000000000000000000a0ed1f713ffe43640afc36f435f181056c1a960b2ddcd6714dbef775ade09aa2c9a0ea2164b24b79d9708108afa05a267ddbf42971d34a215dd6158fb48776932c0ea0543bb9ba3c84c66db2c71d2cc38a17d6e708597dd397b0e8946e36a9eca94f1eb901000000000000000000000000000000000000000000000000000000000000000000000000000000000000000000000000000000000000000000000000000000000000000000000000000000000000000000000000000000000000000000000000000000000000000000000000000000000000000000000000000000000000000000000000000000000000000000000000000000000000000000000000000000000000000000000000000000000000000000000000000000000000000000000000000000000000000000000000000000000000000000000000000000000000000000000000000000000000000000000000000000000000000000000000000000000083020000028347e7c482ddf41480a00000000000000000000000000000000000000000000000000000000000000000880000000000000000f90125b8c101f8be01010a8301e24194000000000000000000000000000000000000aaaa8080f85bf859940000000000000000000000000000000000000000f842a00000000000000000000000000000000000000000000000000000000000000000a0000000000000000000000000000000000000000000000000000000000000000080a082dc119130f280bd72e3fd4e10220e35b767031b84b8dd1f64085e0158f234dba072228551e678a8a6c6e9bae0ae786b8839c7fda0a994caddd23910f45f385cc0f860020a8301e24194000000000000000000000000000000000000aaaa808026a09756172d336ab702075c6dbaaa979455c385aa03039d601205350680c4eff09ca03000821620e1771ca10b4b3639bb8932e2cb1f91f90714cf0cc4d6b418f944f1c0",
  "json": {
    "header": {
      "parentHash": "0xb44579073851e99fe60940bf6217a6eae1908918eb89c2ad8ba7cdd31104aef7",
      "sha3Uncles": "0x1dcc4de8dec75d7aab85b567b6ccd41ad312451b948a7413f0a142fd40d49347",
      "miner": "0x0100000000000000000000000000000000000000",
      "stateRoot": "0xed1f713ffe43640afc36f435f181056c1a960b2ddcd6714dbef775ade09aa2c9",
      "transactionsRoot": "0xea2164b24b79d9708108afa05a267ddbf42971d34a215dd6158fb48776932c0e",
      "receiptsRoot": "0x543bb9ba3c84c66db2c71d2cc38a17d6e708597dd397b0e8946e36a9eca94f1e",
      "logsBloom": "0x00000000000000000000000000000000000000000000000000000000000000000000000000000000000000000000000000000000000000000000000000000000000000000000000000000000000000000000000000000000000000000000000000000000000000000000000000000000000000000000000000000000000000000000000000000000000000000000000000000000000000000000000000000000000000000000000000000000000000000000000000000000000000000000000000000000000000000000000000000000000000000000000000000000000000000000000000000000000000000000000000000000000000000000000000000000",
      "difficulty": "0x20000",
      "number": "0x2",
      "gasLimit": "0x47e7c4",
      "gasUsed": "0xddf4",
      "timestamp": "0x14",
      "extraData": "0x",
      "mixHash": "0x0000000000000000000000000000000000000000000000000000000000000000",
      "nonce": "0x0000000000000000",
      "hash": "0x45ce9fae124eb06c68394ffb53edd1c0e46cf957185b18a3c43821266b71f26d"
    },
    "transactions": [
      {
        "type": "0x1",
        "chainId": "0x1",
        "nonce": "0x1",
        "gasPrice": "0xa",
        "gas": "0x1e241",
        "to": "0x000000000000000000000000000000000000aaaa",
        "value": "0x0",
        "input": "0x",
        "accessList": [
          {
            "address": "0x0000000000000000000000000000000000000000",
            "storageKeys": [
              "0x0000000000000000000000000000000000000000000000000000000000000000",
              "0x0000000000000000000000000000000000000000000000000000000000000000"
            ]
          }
        ],
        "v": "0x0",
        "r": "0x82dc119130f280bd72e3fd4e10220e35b767031b84b8dd1f64085e0158f234db",
        "s": "0x72228551e678a8a6c6e9bae0ae786b8839c7fda0a994caddd23910f45f385cc0",
        "hash": "0x41760e65a1d237e001cfe56427ebb03f0c377f6fa17ae19ec00d40a363ae16be"
      },
      {
        "type": "0x0",
        "chainId": null,
        "nonce": "0x2",
        "gasPrice": "0xa",
        "gas": "0x1e241",
        "to": "0x000000000000000000000000000000000000aaaa",
        "value": "0x0",
        "input": "0x",
        "accessList": null,
        "v": "0x26",
        "r": "0x9756172d336ab702075c6dbaaa979455c385aa03039d601205350680c4eff09c",
        "s": "0x3000821620e1771ca10b4b3639bb8932e2cb1f91f90714cf0cc4d6b418f944f1",
        "hash": "0x7c331109477a2ebca4778b7818a367e5b7bda7e056bbcf64837cd0c62e008431"
      }
    ],
    "uncles": null,
    "receipts": null
  }
}