{
  "rlp": "f91c77f901f6a0c48af3c63e80dcf56fcc7c830c7ec5cd782896ad71193ad20beb3b29e73e11a9a01dcc4de8dec75d7aab85b567b6ccd41ad312451b948a7413f0a142fd40d49347940100000000000000000000000000000000000000a0a463cb31e670fe25b7b5dfbbc793dd928db33a8b845298467c48809be4e5a7f7a087c8e925a1221e6e3a1d4b605f87848777f5ba38168c2ccc5cf024762ead055ca0638157d19e0340249b3934837bf99770474d939b2ae93f2d1c7f5db19d6d041db901000000000000000000000000000000000000000000000000000000000000000000000000000000000000000000000000000000000000000000000000000000000000000000000000000000000000000000000000000000000000000000000000000000000000000000000000000000000000000000000000000000000000000000000000000000000000000000000000000000000000000000000000000000000000000000000000000000000000000000000000000000000000000000000000000000000000000000000000000000000000000000000000000000000000000000000000000000000000000000000000000000000000000000000000000000000083020000098347e7c4830987ce5a80a00000000000000000000000000000000000000000000000000000000000000000880000000000000000f91a7ab9034001f9033c01240a8301e24194000000000000000000000000000000000000aaaa8080f902d8f859940000000000000000000000000000000000000000f842a00000000000000000000000000000000000000000000000000000000000000000a00000000000000000000000000000000000000000000000000000000000000000f859940100000000000000000000000000000000000000f842a00000000000000000000000000000000000000000000000000000000000000000a00100000000000000000000000000000000000000000000000000000000000000f859940200000000000000000000000000000000000000f842a00000000000000000000000000000000000000000000000000000000000000000a00200000000000000000000000000000000000000000000000000000000000000f859940300000000000000000000000000000000000000f842a00000000000000000000000000000000000000000000000000000000000000000a00300000000000000000000000000000000000000000000000000000000000000f859940400000000000000000000000000000000000000f842a00000000000000000000000000000000000000000000000000000000000000000a00400000000000000000000000000000000000000000000000000000000000000f859940500000000000000000000000000000000000000f842a00000000000000000000000000000000000000000000000000000000000000000a00500000000000000000000000000000000000000000000000000000000000000f859940600000000000000000000000000000000000000f842a00000000000000000000000000000000000000000000000000000000000000000a00600000000000000000000000000000000000000000000000000000000000000f859940700000000000000000000000000000000000000f842a00000000000000000000000000000000000000000000000000000000000000000a0070000000000000000000000000000000000000000000000000000000000000080a0170a46887a741e98bb82c99fc68d86e32447508bb3558699294ff562fb6b9be2a003764ba59caab09b25f16eb1e0d6be0b071fd7aebefc88a7c056f4ebeaa8cb5bb9034001f9033c01250a8301e24194000000000000000000000000000000000000aaaa8080f902d8f859940000000000000000000000000000000000000000f842a00000000000000000000000000000000000000000000000000000000000000000a00000000000000000000000000000000000000000000000000000000000000000f859940100000000000000000000000000000000000000f842a00000000000000000000000000000000000000000000000000000000000000000a00100000000000000000000000000000000000000000000000000000000000000f859940200000000000000000000000000000000000000f842a00000000000000000000000000000000000000000000000000000000000000000a00200000000000000000000000000000000000000000000000000000000000000f859940300000000000000000000000000000000000000f842a00000000000000000000000000000000000000000000000000000000000000000a00300000000000000000000000000000000000000000000000000000000000000f859940400000000000000000000000000000000000000f842a00000000000000000000000000000000000000000000000000000000000000000a00400000000000000000000000000000000000000000000000000000000000000f859940500000000000000000000000000000000000000f842a00000000000000000000000000000000000000000000000000000000000000000a00500000000000000000000000000000000000000000000000000000000000000f859940600000000000000000000000000000000000000f842a00000000000000000000000000000000000000000000000000000000000000000a00600000000000000000000000000000000000000000000000000000000000000f859940700000000000000000000000000000000000000f842a00000000000000000000000000000000000000000000000000000000000000000a0070000000000000000000000000000000000000000000000000000000000000001a007775a2a2180025ae4c2b63a20e586538fab33ff619ca6a937d6865360be8dcba061f490b7c60e665854bc5dc4b5f40bb2c31625788c10b98035c8f525adadee53b9034001f9033c01260a8301e24194000000000000000000000000000000000000aaaa8080f902d8f859940000000000000000000000000000000000000000f842a00000000000000000000000000000000000000000000000000000000000000000a00000000000000000000000000000000000000000000000000000000000000000f859940100000000000000000000000000000000000000f842a00000000000000000000000000000000000000000000000000000000000000000a00100000000000000000000000000000000000000000000000000000000000000f859940200000000000000000000000000000000000000f842a00000000000000000000000000000000000000000000000000000000000000000a00200000000000000000000000000000000000000000000000000000000000000f859940300000000000000000000000000000000000000f842a00000000000000000000000000000000000000000000000000000000000000000a00300000000000000000000000000000000000000000000000000000000000000f859940400000000000000000000000000000000000000f842a00000000000000000000000000000000000000000000000000000000000000000a00400000000000000000000000000000000000000000000000000000000000000f859940500000000000000000000000000000000000000f842a00000000000000000000000000000000000000000000000000000000000000000a00500000000000000000000000000000000000000000000000000000000000000f859940600000000000000000000000000000000000000f842a00000000000000000000000000000000000000000000000000000000000000000a00600000000000000000000000000000000000000000000000000000000000000f859940700000000000000000000000000000000000000f842a00000000000000000000000000000000000000000000000000000000000000000a0070000000000000000000000000000000000000000000000000000000000000001a02b3b6c19247342eb2062761e24e1d753c032c3b4f4f146b091b2240877483e59a0235f14770796cb22d2cd2e41f63af49b10cf208000be2ba789bb120096b989b8b9034001f9033c01270a8301e24194000000000000000000000000000000000000aaaa8080f902d8f859940000000000000000000000000000000000000000f842a00000000000000000000000000000000000000000000000000000000000000000a00000000000000000000000000000000000000000000000000000000000000000f859940100000000000000000000000000000000000000f842a00000000000000000000000000000000000000000000000000000000000000000a00100000000000000000000000000000000000000000000000000000000000000f859940200000000000000000000000000000000000000f842a00000000000000000000000000000000000000000000000000000000000000000a00200000000000000000000000000000000000000000000000000000000000000f859940300000000000000000000000000000000000000f842a00000000000000000000000000000000000000000000000000000000000000000a00300000000000000000000000000000000000000000000000000000000000000f859940400000000000000000000000000000000000000f842a00000000000000000000000000000000000000000000000000000000000000000a00400000000000000000000000000000000000000000000000000000000000000f859940500000000000000000000000000000000000000f842a00000000000000000000000000000000000000000000000000000000000000000a00500000000000000000000000000000000000000000000000000000000000000f859940600000000000000000000000000000000000000f842a00000000000000000000000000000000000000000000000000000000000000000a00600000000000000000000000000000000000000000000000000000000000000f859940700000000000000000000000000000000000000f842a00000000000000000000000000000000000000000000000000000000000000000a0070000000000000000000000000000000000000000000000000000000000000001a0805dca3053d94bad7b563b604a976388595eb8834eaf3ef7973de21bcc9ca97ca05c37e3a461283d51557dfb0f740065dcc4d0aef005829805a504643e5523b489b9034001f9033c01280a8301e24194000000000000000000000000000000000000aaaa8080f902d8f859940000000000000000000000000000000000000000f842a00000000000000000000000000000000000000000000000000000000000000000a00000000000000000000000000000000000000000000000000000000000000000f859940100000000000000000000000000000000000000f842a00000000000000000000000000000000000000000000000000000000000000000a00100000000000000000000000000000000000000000000000000000000000000f859940200000000000000000000000000000000000000f842a00000000000000000000000000000000000000000000000000000000000000000a00200000000000000000000000000000000000000000000000000000000000000f859940300000000000000000000000000000000000000f842a00000000000000000000000000000000000000000000000000000000000000000a00300000000000000000000000000000000000000000000000000000000000000f859940400000000000000000000000000000000000000f842a00000000000000000000000000000000000000000000000000000000000000000a00400000000000000000000000000000000000000000000000000000000000000f859940500000000000000000000000000000000000000f842a00000000000000000000000000000000000000000000000000000000000000000a00500000000000000000000000000000000000000000000000000000000000000f859940600000000000000000000000000000000000000f842a00000000000000000000000000000000000000000000000000000000000000000a00600000000000000000000000000000000000000000000000000000000000000f859940700000000000000000000000000000000000000f842a00000000000000000000000000000000000000000000000000000000000000000a0070000000000000000000000000000000000000000000000000000000000000001a047522841a060cc664997d11fdec3e929a65a6ee124a47bc82dd873e79b80adbba06cae9c3319fbe8a1206db7ed2063288f707811fd06ba558da8e2187bdc41d375b9034001f9033c01290a8301e24194000000000000000000000000000000000000aaaa8080f902d8f859940000000000000000000000000000000000000000f842a00000000000000000000000000000000000000000000000000000000000000000a00000000000000000000000000000000000000000000000000000000000000000f859940100000000000000000000000000000000000000f842a00000000000000000000000000000000000000000000000000000000000000000a00100000000000000000000000000000000000000000000000000000000000000f859940200000000000000000000000000000000000000f842a00000000000000000000000000000000000000000000000000000000000000000a00200000000000000000000000000000000000000000000000000000000000000f859940300000000000000000000000000000000000000f842a00000000000000000000000000000000000000000000000000000000000000000a00300000000000000000000000000000000000000000000000000000000000000f859940400000000000000000000000000000000000000f842a00000000000000000000000000000000000000000000000000000000000000000a00400000000000000000000000000000000000000000000000000000000000000f859940500000000000000000000000000000000000000f842a00000000000000000000000000000000000000000000000000000000000000000a00500000000000000000000000000000000000000000000000000000000000000f859940600000000000000000000000000000000000000f842a00000000000000000000000000000000000000000000000000000000000000000a00600000000000000000000000000000000000000000000000000000000000000f859940700000000000000000000000000000000000000f842a00000000000000000000000000000000000000000000000000000000000000000a0070000000000000000000000000000000000000000000000000000000000000080a0a87b7830fe657f02a195aa1b2617501bcb52b95ebbd9479277f3dfa22de1b0e3a061d0c1acb8066f8dd3b3ef18f714cd0132247dab45c3481c2b7fc6cfb9708ef7b9034001f9033c012a0a8301e24194000000000000000000000000000000000000aaaa8080f902d8f859940000000000000000000000000000000000000000f842a00000000000000000000000000000000000000000000000000000000000000000a00000000000000000000000000000000000000000000000000000000000000000f859940100000000000000000000000000000000000000f842a00000000000000000000000000000000000000000000000000000000000000000a00100000000000000000000000000000000000000000000000000000000000000f859940200000000000000000000000000000000000000f842a00000000000000000000000000000000000000000000000000000000000000000a00200000000000000000000000000000000000000000000000000000000000000f859940300000000000000000000000000000000000000f842a00000000000000000000000000000000000000000000000000000000000000000a00300000000000000000000000000000000000000000000000000000000000000f859940400000000000000000000000000000000000000f842a00000000000000000000000000000000000000000000000000000000000000000a00400000000000000000000000000000000000000000000000000000000000000f859940500000000000000000000000000000000000000f842a00000000000000000000000000000000000000000000000000000000000000000a00500000000000000000000000000000000000000000000000000000000000000f859940600000000000000000000000000000000000000f842a00000000000000000000000000000000000000000000000000000000000000000a00600000000000000000000000000000000000000000000000000000000000000f859940700000000000000000000000000000000000000f842a00000000000000000000000000000000000000000000000000000000000000000a0070000000000000000000000000000000000000000000000000000000000000001a0b7fb8508b5e3993af55d04f6e58732037ac0dc5a1ac5538bf9dae95e52c1d005a00656240da661eea32298774cf810e858a6b8999ae5b9564e708a55e15ae4a051b9034001f9033c012b0a8301e24194000000000000000000000000000000000000aaaa8080f902d8f859940000000000000000000000000000000000000000f842a00000000000000000000000000000000000000000000000000000000000000000a00000000000000000000000000000000000000000000000000000000000000000f859940100000000000000000000000000000000000000f842a00000000000000000000000000000000000000000000000000000000000000000a00100000000000000000000000000000000000000000000000000000000000000f859940200000000000000000000000000000000000000f842a00000000000000000000000000000000000000000000000000000000000000000a00200000000000000000000000000000000000000000000000000000000000000f859940300000000000000000000000000000000000000f842a00000000000000000000000000000000000000000000000000000000000000000a00300000000000000000000000000000000000000000000000000000000000000f859940400000000000000000000000000000000000000f842a00000000000000000000000000000000000000000000000000000000000000000a00400000000000000000000000000000000000000000000000000000000000000f859940500000000000000000000000000000000000000f842a00000000000000000000000000000000000000000000000000000000000000000a00500000000000000000000000000000000000000000000000000000000000000f859940600000000000000000000000000000000000000f842a00000000000000000000000000000000000000000000000000000000000000000a00600000000000000000000000000000000000000000000000000000000000000f859940700000000000000000000000000000000000000f842a00000000000000000000000000000000000000000000000000000000000000000a0070000000000000000000000000000000000000000000000000000000000000080a016a3a0af3ff0279ea62d7554131ad7670ccb83850bd6d0bb66cbaa45c46e5c35a055a9915e20c483e9237f0bfef99455d43ac1f22a438a9485b6e1f3dbbab441abf8602c0a8301e24194000000000000000000000000000000000000aaaa808026a0cffdf83faecfc8fe7e2e83570f0bcd9ef0e4914fd645dc8399bbd5bc8d483762a067ab197437466269980d4b18a1ed11744d7dceeae934729b14094fe31f5875a5c0",
  "json": {
    "header": {
      "parentHash": "0xc48af3c63e80dcf56fcc7c830c7ec5cd782896ad71193ad20beb3b29e73e11a9",
      "sha3Uncles": "0x1dcc4de8dec75d7aab85b567b6ccd41ad312451b948a7413f0a142fd40d49347",
      "miner": "0x0100000000000000000000000000000000000000",
      "stateRoot": "0xa463cb31e670fe25b7b5dfbbc793dd928db33a8b845298467c48809be4e5a7f7",
      "transactionsRoot": "0x87c8e925a1221e6e3a1d4b605f87848777f5ba38168c2ccc5cf024762ead055c",
      "receiptsRoot": "0x638157d19e0340249b3934837bf99770474d939b2ae93f2d1c7f5db19d6d041d",
      "logsBloom": "0x00000000000000000000000000000000000000000000000000000000000000000000000000000000000000000000000000000000000000000000000000000000000000000000000000000000000000000000000000000000000000000000000000000000000000000000000000000000000000000000000000000000000000000000000000000000000000000000000000000000000000000000000000000000000000000000000000000000000000000000000000000000000000000000000000000000000000000000000000000000000000000000000000000000000000000000000000000000000000000000000000000000000000000000000000000000",
      "difficulty": "0x20000",
      "number": "0x9",
      "gasLimit": "0x47e7c4",
      "gasUsed": "0x987ce",
      "timestamp": "0x5a",
      "extraData": "0x",
      "mixHash": "0x0000000000000000000000000000000000000000000000000000000000000000",
      "nonce": "0x0000000000000000",
      "hash": "0x35ad84ebaa22053e24ac21d946c71e49e3cea2a3f2c0f373505bf2ee250f1201"
    },
    "transactions": [
      {
        "type": "0x1",
        "chainId": "0x1",
        "nonce": "0x24",
        "gasPrice": "0xa",
        "gas": "0x1e241",
        "to": "0x000000000000000000000000000000000000aaaa",
        "value": "0x0",
        "input": "0x",
        "accessList": [
          {
            "address": "0x0000000000000000000000000000000000000000",
            "storageKeys": [
              "0x0000000000000000000000000000000000000000000000000000000000000000",
              "0x0000000000000000000000000000000000000000000000000000000000000000"
            ]
          },
          {
            "address": "0x0100000000000000000000000000000000000000",
            "storageKeys": [
              "0x0000000000000000000000000000000000000000000000000000000000000000",
              "0x0100000000000000000000000000000000000000000000000000000000000000"
            ]
          },
          {
            "address": "0x0200000000000000000000000000000000000000",
            "storageKeys": [
              "0x0000000000000000000000000000000000000000000000000000000000000000",
              "0x0200000000000000000000000000000000000000000000000000000000000000"
            ]
          },
          {
            "address": "0x0300000000000000000000000000000000000000",
            "storageKeys": [
              "0x0000000000000000000000000000000000000000000000000000000000000000",
              "0x0300000000000000000000000000000000000000000000000000000000000000"
            ]
          },
          {
            "address": "0x0400000000000000000000000000000000000000",
            "storageKeys": [
              "0x0000000000000000000000000000000000000000000000000000000000000000",
              "0x0400000000000000000000000000000000000000000000000000000000000000"
            ]
          },
          {
            "address": "0x0500000000000000000000000000000000000000",
            "storageKeys": [
              "0x0000000000000000000000000000000000000000000000000000000000000000",
              "0x0500000000000000000000000000000000000000000000000000000000000000"
            ]
          },
          {
            "address": "0x0600000000000000000000000000000000000000",
            "storageKeys": [
              "0x0000000000000000000000000000000000000000000000000000000000000000",
              "0x0600000000000000000000000000000000000000000000000000000000000000"
            ]
          },
          {
            "address": "0x0700000000000000000000000000000000000000",
            "storageKeys": [
              "0x0000000000000000000000000000000000000000000000000000000000000000",
              "0x0700000000000000000000000000000000000000000000000000000000000000"
            ]
          }
        ],
        "v": "0x0",
        "r": "0x170a46887a741e98bb82c99fc68d86e32447508bb3558699294ff562fb6b9be2",
        "s": "0x3764ba59caab09b25f16eb1e0d6be0b071fd7aebefc88a7c056f4ebeaa8cb5b",
        "hash": "0x6efd98eee12ad55ea61c467a685c5405d71a5d7eee0bf7446610a71bbb252978"
      },
      {
        "type": "0x1",
        "chainId": "0x1",
        "nonce": "0x25",
        "gasPrice": "0xa",
        "gas": "0x1e241",
        "to": "0x000000000000000000000000000000000000aaaa",
        "value": "0x0",
        "input": "0x",
        "accessList": [
          {
            "address": "0x0000000000000000000000000000000000000000",
            "storageKeys": [
              "0x0000000000000000000000000000000000000000000000000000000000000000",
              "0x0000000000000000000000000000000000000000000000000000000000000000"
            ]
          },
          {
            "address": "0x0100000000000000000000000000000000000000",
            "storageKeys": [
              "0x0000000000000000000000000000000000000000000000000000000000000000",
              "0x0100000000000000000000000000000000000000000000000000000000000000"
            ]
          },
          {
            "address": "0x0200000000000000000000000000000000000000",
            "storageKeys": [
              "0x0000000000000000000000000000000000000000000000000000000000000000",
              "0x0200000000000000000000000000000000000000000000000000000000000000"
            ]
          },
          {
            "address": "0x0300000000000000000000000000000000000000",
            "storageKeys": [
              "0x0000000000000000000000000000000000000000000000000000000000000000",
              "0x0300000000000000000000000000000000000000000000000000000000000000"
            ]
          },
          {
            "address": "0x0400000000000000000000000000000000000000",
            "storageKeys": [
              "0x0000000000000000000000000000000000000000000000000000000000000000",
              "0x0400000000000000000000000000000000000000000000000000000000000000"
            ]
          },
          {
            "address": "0x0500000000000000000000000000000000000000",
            "storageKeys": [
              "0x0000000000000000000000000000000000000000000000000000000000000000",
              "0x0500000000000000000000000000000000000000000000000000000000000000"
            ]
          },
          {
            "address": "0x0600000000000000000000000000000000000000",
            "storageKeys": [
              "0x0000000000000000000000000000000000000000000000000000000000000000",
              "0x0600000000000000000000000000000000000000000000000000000000000000"
            ]
          },
          {
            "address": "0x0700000000000000000000000000000000000000",
            "storageKeys": [
              "0x0000000000000000000000000000000000000000000000000000000000000000",
              "0x0700000000000000000000000000000000000000000000000000000000000000"
            ]
          }
        ],
        "v": "0x1",
        "r": "0x7775a2a2180025ae4c2b63a20e586538fab33ff619ca6a937d6865360be8dcb",
        "s": "0x61f490b7c60e665854bc5dc4b5f40bb2c31625788c10b98035c8f525adadee53",
        "hash": "0xfc8f3b59421c55961e9148b55df36202cef47250717448b712ed8532a8dc3f8d"
      },
      {
        "type": "0x1",
        "chainId": "0x1",
        "nonce": "0x26",
        "gasPrice": "0xa",
        "gas": "0x1e241",
        "to": "0x000000000000000000000000000000000000aaaa",
        "value": "0x0",
        "input": "0x",
        "accessList": [
          {
            "address": "0x0000000000000000000000000000000000000000",
            "storageKeys": [
              "0x0000000000000000000000000000000000000000000000000000000000000000",
              "0x0000000000000000000000000000000000000000000000000000000000000000"
            ]
          },
          {
            "address": "0x0100000000000000000000000000000000000000",
            "storageKeys": [
              "0x0000000000000000000000000000000000000000000000000000000000000000",
              "0x0100000000000000000000000000000000000000000000000000000000000000"
            ]
          },
          {
            "address": "0x0200000000000000000000000000000000000000",
            "storageKeys": [
              "0x0000000000000000000000000000000000000000000000000000000000000000",
              "0x0200000000000000000000000000000000000000000000000000000000000000"
            ]
          },
          {
            "address": "0x0300000000000000000000000000000000000000",
            "storageKeys": [
              "0x0000000000000000000000000000000000000000000000000000000000000000",
              "0x0300000000000000000000000000000000000000000000000000000000000000"
            ]
          },
          {
            "address": "0x0400000000000000000000000000000000000000",
            "storageKeys": [
              "0x0000000000000000000000000000000000000000000000000000000000000000",
              "0x0400000000000000000000000000000000000000000000000000000000000000"
            ]
          },
          {
            "address": "0x0500000000000000000000000000000000000000",
            "storageKeys": [
              "0x0000000000000000000000000000000000000000000000000000000000000000",
              "0x0500000000000000000000000000000000000000000000000000000000000000"
            ]
          },
          {
            "address": "0x0600000000000000000000000000000000000000",
            "storageKeys": [
              "0x0000000000000000000000000000000000000000000000000000000000000000",
              "0x0600000000000000000000000000000000000000000000000000000000000000"
            ]
          },
          {
            "address": "0x0700000000000000000000000000000000000000",
            "storageKeys": [
              "0x0000000000000000000000000000000000000000000000000000000000000000",
              "0x0700000000000000000000000000000000000000000000000000000000000000"
            ]
          }
        ],
        "v": "0x1",
        "r": "0x2b3b6c19247342eb2062761e24e1d753c032c3b4f4f146b091b2240877483e59",
        "s": "0x235f14770796cb22d2cd2e41f63af49b10cf208000be2ba789bb120096b989b8",
        "hash": "0x9998aabf75a918d993edb60f8f58c07280a8334e58a372b8c83ebaedcbe896ad"
      },
      {
        "type": "0x1",
        "chainId": "0x1",
        "nonce": "0x27",
        "gasPrice": "0xa",
        "gas": "0x1e241",
        "to": "0x000000000000000000000000000000000000aaaa",
        "value": "0x0",
        "input": "0x",
        "accessList": [
          {
            "address": "0x0000000000000000000000000000000000000000",
            "storageKeys": [
              "0x0000000000000000000000000000000000000000000000000000000000000000",
              "0x0000000000000000000000000000000000000000000000000000000000000000"
            ]
          },
          {
            "address": "0x0100000000000000000000000000000000000000",
            "storageKeys": [
              "0x0000000000000000000000000000000000000000000000000000000000000000",
              "0x0100000000000000000000000000000000000000000000000000000000000000"
            ]
          },
          {
            "address": "0x0200000000000000000000000000000000000000",
            "storageKeys": [
              "0x0000000000000000000000000000000000000000000000000000000000000000",
              "0x0200000000000000000000000000000000000000000000000000000000000000"
            ]
          },
          {
            "address": "0x0300000000000000000000000000000000000000",
            "storageKeys": [
              "0x0000000000000000000000000000000000000000000000000000000000000000",
              "0x0300000000000000000000000000000000000000000000000000000000000000"
            ]
          },
          {
            "address": "0x0400000000000000000000000000000000000000",
            "storageKeys": [
              "0x0000000000000000000000000000000000000000000000000000000000000000",
              "0x0400000000000000000000000000000000000000000000000000000000000000"
            ]
          },
          {
            "address": "0x0500000000000000000000000000000000000000",
            "storageKeys": [
              "0x0000000000000000000000000000000000000000000000000000000000000000",
              "0x0500000000000000000000000000000000000000000000000000000000000000"
            ]
          },
          {
            "address": "0x0600000000000000000000000000000000000000",
            "storageKeys": [
              "0x0000000000000000000000000000000000000000000000000000000000000000",
              "0x0600000000000000000000000000000000000000000000000000000000000000"
            ]
          },
          {
            "address": "0x0700000000000000000000000000000000000000",
            "storageKeys": [
              "0x0000000000000000000000000000000000000000000000000000000000000000",
              "0x0700000000000000000000000000000000000000000000000000000000000000"
            ]
          }
        ],
        "v": "0x1",
        "r": "0x805dca3053d94bad7b563b604a976388595eb8834eaf3ef7973de21bcc9ca97c",
        "s": "0x5c37e3a461283d51557dfb0f740065dcc4d0aef005829805a504643e5523b489",
        "hash": "0x743c766ef64a159e1ff83fd958c7caeaa8c869ca370529ad5f807f14feeaad7b"
      },
      {
        "type": "0x1",
        "chainId": "0x1",
        "nonce": "0x28",
        "gasPrice": "0xa",
        "gas": "0x1e241",
        "to": "0x000000000000000000000000000000000000aaaa",
        "value": "0x0",
        "input": "0x",
        "accessList": [
          {
            "address": "0x0000000000000000000000000000000000000000",
            "storageKeys": [
              "0x0000000000000000000000000000000000000000000000000000000000000000",
              "0x0000000000000000000000000000000000000000000000000000000000000000"
            ]
          },
          {
            "address": "0x0100000000000000000000000000000000000000",
            "storageKeys": [
              "0x0000000000000000000000000000000000000000000000000000000000000000",
              "0x0100000000000000000000000000000000000000000000000000000000000000"
            ]
          },
          {
            "address": "0x0200000000000000000000000000000000000000",
            "storageKeys": [
              "0x0000000000000000000000000000000000000000000000000000000000000000",
              "0x0200000000000000000000000000000000000000000000000000000000000000"
            ]
          },
          {
            "address": "0x0300000000000000000000000000000000000000",
            "storageKeys": [
              "0x0000000000000000000000000000000000000000000000000000000000000000",
              "0x0300000000000000000000000000000000000000000000000000000000000000"
            ]
          },
          {
            "address": "0x0400000000000000000000000000000000000000",
            "storageKeys": [
              "0x0000000000000000000000000000000000000000000000000000000000000000",
              "0x0400000000000000000000000000000000000000000000000000000000000000"
            ]
          },
          {
            "address": "0x0500000000000000000000000000000000000000",
            "storageKeys": [
              "0x0000000000000000000000000000000000000000000000000000000000000000",
              "0x0500000000000000000000000000000000000000000000000000000000000000"
            ]
          },
          {
            "address": "0x0600000000000000000000000000000000000000",
            "storageKeys": [
              "0x0000000000000000000000000000000000000000000000000000000000000000",
              "0x0600000000000000000000000000000000000000000000000000000000000000"
            ]
          },
          {
            "address": "0x0700000000000000000000000000000000000000",
            "storageKeys": [
              "0x0000000000000000000000000000000000000000000000000000000000000000",
              "0x0700000000000000000000000000000000000000000000000000000000000000"
            ]
          }
        ],
        "v": "0x1",
        "r": "0x47522841a060cc664997d11fdec3e929a65a6ee124a47bc82dd873e79b80adbb",
        "s": "0x6cae9c3319fbe8a1206db7ed2063288f707811fd06ba558da8e2187bdc41d375",
        "hash": "0xe6b1c6f51ac44f84d3e38ab6f238f313180a91c18079f44bb1af392b7b48c87a"
      },
      {
        "type": "0x1",
        "chainId": "0x1",
        "nonce": "0x29",
        "gasPrice": "0xa",
        "gas": "0x1e241",
        "to": "0x000000000000000000000000000000000000aaaa",
        "value": "0x0",
        "input": "0x",
        "accessList": [
          {
            "address": "0x0000000000000000000000000000000000000000",
            "storageKeys": [
              "0x0000000000000000000000000000000000000000000000000000000000000000",
              "0x0000000000000000000000000000000000000000000000000000000000000000"
            ]
          },
          {
            "address": "0x0100000000000000000000000000000000000000",
            "storageKeys": [
              "0x0000000000000000000000000000000000000000000000000000000000000000",
              "0x0100000000000000000000000000000000000000000000000000000000000000"
            ]
          },
          {
            "address": "0x0200000000000000000000000000000000000000",
            "storageKeys": [
              "0x0000000000000000000000000000000000000000000000000000000000000000",
              "0x0200000000000000000000000000000000000000000000000000000000000000"
            ]
          },
          {
            "address": "0x0300000000000000000000000000000000000000",
            "storageKeys": [
              "0x0000000000000000000000000000000000000000000000000000000000000000",
              "0x0300000000000000000000000000000000000000000000000000000000000000"
            ]
          },
          {
            "address": "0x0400000000000000000000000000000000000000",
            "storageKeys": [
              "0x0000000000000000000000000000000000000000000000000000000000000000",
              "0x0400000000000000000000000000000000000000000000000000000000000000"
            ]
          },
          {
            "address": "0x0500000000000000000000000000000000000000",
            "storageKeys": [
              "0x0000000000000000000000000000000000000000000000000000000000000000",
              "0x0500000000000000000000000000000000000000000000000000000000000000"
            ]
          },
          {
            "address": "0x0600000000000000000000000000000000000000",
            "storageKeys": [
              "0x0000000000000000000000000000000000000000000000000000000000000000",
              "0x0600000000000000000000000000000000000000000000000000000000000000"
            ]
          },
          {
            "address": "0x0700000000000000000000000000000000000000",
            "storageKeys": [
              "0x0000000000000000000000000000000000000000000000000000000000000000",
              "0x0700000000000000000000000000000000000000000000000000000000000000"
            ]
          }
        ],
        "v": "0x0",
        "r": "0xa87b7830fe657f02a195aa1b2617501bcb52b95ebbd9479277f3dfa22de1b0e3",
        "s": "0x61d0c1acb8066f8dd3b3ef18f714cd0132247dab45c3481c2b7fc6cfb9708ef7",
        "hash": "0x4ce8251dac66134f50748d70e59acee7f3395f57c163ac321800337a0b11f1e7"
      },
      {
        "type": "0x1",
        "chainId": "0x1",
        "nonce": "0x2a",
        "gasPrice": "0xa",
        "gas": "0x1e241",
        "to": "0x000000000000000000000000000000000000aaaa",
        "value": "0x0",
        "input": "0x",
        "accessList": [
          {
            "address": "0x0000000000000000000000000000000000000000",
            "storageKeys": [
              "0x0000000000000000000000000000000000000000000000000000000000000000",
              "0x0000000000000000000000000000000000000000000000000000000000000000"
            ]
          },
          {
            "address": "0x0100000000000000000000000000000000000000",
            "storageKeys": [
              "0x0000000000000000000000000000000000000000000000000000000000000000",
              "0x0100000000000000000000000000000000000000000000000000000000000000"
            ]
          },
          {
            "address": "0x0200000000000000000000000000000000000000",
            "storageKeys": [
              "0x0000000000000000000000000000000000000000000000000000000000000000",
              "0x0200000000000000000000000000000000000000000000000000000000000000"
            ]
          },
          {
            "address": "0x0300000000000000000000000000000000000000",
            "storageKeys": [
              "0x0000000000000000000000000000000000000000000000000000000000000000",
              "0x0300000000000000000000000000000000000000000000000000000000000000"
            ]
          },
          {
            "address": "0x0400000000000000000000000000000000000000",
            "storageKeys": [
              "0x0000000000000000000000000000000000000000000000000000000000000000",
              "0x0400000000000000000000000000000000000000000000000000000000000000"
            ]
          },
          {
            "address": "0x0500000000000000000000000000000000000000",
            "storageKeys": [
              "0x0000000000000000000000000000000000000000000000000000000000000000",
              "0x0500000000000000000000000000000000000000000000000000000000000000"
            ]
          },
          {
            "address": "0x0600000000000000000000000000000000000000",
            "storageKeys": [
              "0x0000000000000000000000000000000000000000000000000000000000000000",
              "0x0600000000000000000000000000000000000000000000000000000000000000"
            ]
          },
          {
            "address": "0x0700000000000000000000000000000000000000",
            "storageKeys": [
              "0x0000000000000000000000000000000000000000000000000000000000000000",
              "0x0700000000000000000000000000000000000000000000000000000000000000"
            ]
          }
        ],
        "v": "0x1",
        "r": "0xb7fb8508b5e3993af55d04f6e58732037ac0dc5a1ac5538bf9dae95e52c1d005",
        "s": "0x656240da661eea32298774cf810e858a6b8999ae5b9564e708a55e15ae4a051",
        "hash": "0xb7dc9ae376bd9065b403bb143020f589b860dee65a5a9ebd7e0bd1abc9eae5fb"
      },
      {
        "type": "0x1",
        "chainId": "0x1",
        "nonce": "0x2b",
        "gasPrice": "0xa",
        "gas": "0x1e241",
        "to": "0x000000000000000000000000000000000000aaaa",
        "value": "0x0",
        "input": "0x",
        "accessList": [
          {
            "address": "0x0000000000000000000000000000000000000000",
            "storageKeys": [
              "0x0000000000000000000000000000000000000000000000000000000000000000",
              "0x0000000000000000000000000000000000000000000000000000000000000000"
            ]
          },
          {
            "address": "0x0100000000000000000000000000000000000000",
            "storageKeys": [
              "0x0000000000000000000000000000000000000000000000000000000000000000",
              "0x0100000000000000000000000000000000000000000000000000000000000000"
            ]
          },
          {
            "address": "0x0200000000000000000000000000000000000000",
            "storageKeys": [
              "0x0000000000000000000000000000000000000000000000000000000000000000",
              "0x0200000000000000000000000000000000000000000000000000000000000000"
            ]
          },
          {
            "address": "0x0300000000000000000000000000000000000000",
            "storageKeys": [
              "0x0000000000000000000000000000000000000000000000000000000000000000",
              "0x0300000000000000000000000000000000000000000000000000000000000000"
            ]
          },
          {
            "address": "0x0400000000000000000000000000000000000000",
            "storageKeys": [
              "0x0000000000000000000000000000000000000000000000000000000000000000",
              "0x0400000000000000000000000000000000000000000000000000000000000000"
            ]
          },
          {
            "address": "0x0500000000000000000000000000000000000000",
            "storageKeys": [
              "0x0000000000000000000000000000000000000000000000000000000000000000",
              "0x0500000000000000000000000000000000000000000000000000000000000000"
            ]
          },
          {
            "address": "0x0600000000000000000000000000000000000000",
            "storageKeys": [
              "0x0000000000000000000000000000000000000000000000000000000000000000",
              "0x0600000000000000000000000000000000000000000000000000000000000000"
            ]
          },
          {
            "address": "0x0700000000000000000000000000000000000000",
            "storageKeys": [
              "0x0000000000000000000000000000000000000000000000000000000000000000",
              "0x0700000000000000000000000000000000000000000000000000000000000000"
            ]
          }
        ],
        "v": "0x0",
        "r": "0x16a3a0af3ff0279ea62d7554131ad7670ccb83850bd6d0bb66cbaa45c46e5c35",
        "s": "0x55a9915e20c483e9237f0bfef99455d43ac1f22a438a9485b6e1f3dbbab441ab",
        "hash": "0xcf7e327a838d9b07eabff38f6f7f39c7bcb36463e114f66934ea451abb9b87bf"
      },
      {
        "type": "0x0",
        "chainId": null,
        "nonce": "0x2c",
        "gasPrice": "0xa",
        "gas": "0x1e241",
        "to": "0x000000000000000000000000000000000000aaaa",
        "value": "0x0",
        "input": "0x",
        "accessList": null,
        "v": "0x26",
        "r": "0xcffdf83faecfc8fe7e2e83570f0bcd9ef0e4914fd645dc8399bbd5bc8d483762",
        "s": "0x67ab197437466269980d4b18a1ed11744d7dceeae934729b14094fe31f5875a5",
        "hash": "0xe6a49397da6f57aacebcf4024e6a07c4a724042db248cc668926ec2a2abc2394"
      }
    ],
    "uncles": null,
    "receipts": null
  }
}