{
  "rlp": "f911adf901f6a05ddaed99af17f5dce831bdb5f07a90ddf2cf530951e33da434a35985aa42c6c3a01dcc4de8dec75d7aab85b567b6ccd41ad312451b948a7413f0a142fd40d49347940100000000000000000000000000000000000000a0dd07cac1fd50a2d47b3faf9514b2a3e385fcd6e3102760f6bea1f919515cacffa0637d26d4cecdd55c7927c6d203ce40b7d9faf363fff990c3fc5e502f5edc1eada0ed9cc53fd0eee79528719ca973156891c6be9ddfe7bb9a788d4a3bc1d261773bb901000000000000000000000000000000000000000000000000000000000000000000000000000000000000000000000000000000000000000000000000000000000000000000000000000000000000000000000000000000000000000000000000000000000000000000000000000000000000000000000000000000000000000000000000000000000000000000000000000000000000000000000000000000000000000000000000000000000000000000000000000000000000000000000000000000000000000000000000000000000000000000000000000000000000000000000000000000000000000000000000000000000000000000000000000000000083020000078347e7c483061bf24680a00000000000000000000000000000000000000000000000000000000000000000880000000000000000f90fb0b9028a01f9028601150a8301e24194000000000000000000000000000000000000aaaa8080f90222f859940000000000000000000000000000000000000000f842a00000000000000000000000000000000000000000000000000000000000000000a00000000000000000000000000000000000000000000000000000000000000000f859940100000000000000000000000000000000000000f842a00000000000000000000000000000000000000000000000000000000000000000a00100000000000000000000000000000000000000000000000000000000000000f859940200000000000000000000000000000000000000f842a00000000000000000000000000000000000000000000000000000000000000000a00200000000000000000000000000000000000000000000000000000000000000f859940300000000000000000000000000000000000000f842a00000000000000000000000000000000000000000000000000000000000000000a00300000000000000000000000000000000000000000000000000000000000000f859940400000000000000000000000000000000000000f842a00000000000000000000000000000000000000000000000000000000000000000a00400000000000000000000000000000000000000000000000000000000000000f859940500000000000000000000000000000000000000f842a00000000000000000000000000000000000000000000000000000000000000000a0050000000000000000000000000000000000000000000000000000000000000080a069e444997b9e7db9d3c351acb17da1666358ec8ce1fe34e6084f7347bfcfa83aa064e539a2efbab6c0ec01f1d6d38bf97218a3e42db66a84e35945f65afc4af52cb9028a01f9028601160a8301e24194000000000000000000000000000000000000aaaa8080f90222f859940000000000000000000000000000000000000000f842a00000000000000000000000000000000000000000000000000000000000000000a00000000000000000000000000000000000000000000000000000000000000000f859940100000000000000000000000000000000000000f842a00000000000000000000000000000000000000000000000000000000000000000a00100000000000000000000000000000000000000000000000000000000000000f859940200000000000000000000000000000000000000f842a00000000000000000000000000000000000000000000000000000000000000000a00200000000000000000000000000000000000000000000000000000000000000f859940300000000000000000000000000000000000000f842a00000000000000000000000000000000000000000000000000000000000000000a00300000000000000000000000000000000000000000000000000000000000000f859940400000000000000000000000000000000000000f842a00000000000000000000000000000000000000000000000000000000000000000a00400000000000000000000000000000000000000000000000000000000000000f859940500000000000000000000000000000000000000f842a00000000000000000000000000000000000000000000000000000000000000000a0050000000000000000000000000000000000000000000000000000000000000080a0a3290dc9c69c2ddd720698de596e2585102f14a5fafa3332abb0fe3e7857a58ba00ad0540e2e37a1fc9a0c03b3a69c420210f86331641c4ee8cf8005cd44db7b5eb9028a01f9028601170a8301e24194000000000000000000000000000000000000aaaa8080f90222f859940000000000000000000000000000000000000000f842a00000000000000000000000000000000000000000000000000000000000000000a00000000000000000000000000000000000000000000000000000000000000000f859940100000000000000000000000000000000000000f842a00000000000000000000000000000000000000000000000000000000000000000a00100000000000000000000000000000000000000000000000000000000000000f859940200000000000000000000000000000000000000f842a00000000000000000000000000000000000000000000000000000000000000000a00200000000000000000000000000000000000000000000000000000000000000f859940300000000000000000000000000000000000000f842a00000000000000000000000000000000000000000000000000000000000000000a00300000000000000000000000000000000000000000000000000000000000000f859940400000000000000000000000000000000000000f842a00000000000000000000000000000000000000000000000000000000000000000a00400000000000000000000000000000000000000000000000000000000000000f859940500000000000000000000000000000000000000f842a00000000000000000000000000000000000000000000000000000000000000000a0050000000000000000000000000000000000000000000000000000000000000080a0423621e9b3b5f003d15cea8eacd765dcbd7b9de4bff637ff57b3c3e184cac5dea0149abd25789e4ce0a24aa63f230e5afe934ab7d9096db737af7e2d5703914a70b9028a01f9028601180a8301e24194000000000000000000000000000000000000aaaa8080f90222f859940000000000000000000000000000000000000000f842a00000000000000000000000000000000000000000000000000000000000000000a00000000000000000000000000000000000000000000000000000000000000000f859940100000000000000000000000000000000000000f842a00000000000000000000000000000000000000000000000000000000000000000a00100000000000000000000000000000000000000000000000000000000000000f859940200000000000000000000000000000000000000f842a00000000000000000000000000000000000000000000000000000000000000000a00200000000000000000000000000000000000000000000000000000000000000f859940300000000000000000000000000000000000000f842a00000000000000000000000000000000000000000000000000000000000000000a00300000000000000000000000000000000000000000000000000000000000000f859940400000000000000000000000000000000000000f842a00000000000000000000000000000000000000000000000000000000000000000a00400000000000000000000000000000000000000000000000000000000000000f859940500000000000000000000000000000000000000f842a00000000000000000000000000000000000000000000000000000000000000000a0050000000000000000000000000000000000000000000000000000000000000080a03828c9ac89048c829d2636170dfae92e653be033c684f228fbf5a9bce141fcaaa00902674169c7dcb2eb4faec66d9ba35c31eb1316755cf19ac82d33358e63fca9b9028a01f9028601190a8301e24194000000000000000000000000000000000000aaaa8080f90222f859940000000000000000000000000000000000000000f842a00000000000000000000000000000000000000000000000000000000000000000a00000000000000000000000000000000000000000000000000000000000000000f859940100000000000000000000000000000000000000f842a00000000000000000000000000000000000000000000000000000000000000000a00100000000000000000000000000000000000000000000000000000000000000f859940200000000000000000000000000000000000000f842a00000000000000000000000000000000000000000000000000000000000000000a00200000000000000000000000000000000000000000000000000000000000000f859940300000000000000000000000000000000000000f842a00000000000000000000000000000000000000000000000000000000000000000a00300000000000000000000000000000000000000000000000000000000000000f859940400000000000000000000000000000000000000f842a00000000000000000000000000000000000000000000000000000000000000000a00400000000000000000000000000000000000000000000000000000000000000f859940500000000000000000000000000000000000000f842a00000000000000000000000000000000000000000000000000000000000000000a0050000000000000000000000000000000000000000000000000000000000000001a091d9a0233ab5773c83179adcae0f99f21985e280f44760cb99f91fda53dc1ee6a0592fde4635dffe070b989902dee4f7a14b2d43410ee4ac2f025d16bfeeccec24b9028a01f90286011a0a8301e24194000000000000000000000000000000000000aaaa8080f90222f859940000000000000000000000000000000000000000f842a00000000000000000000000000000000000000000000000000000000000000000a00000000000000000000000000000000000000000000000000000000000000000f859940100000000000000000000000000000000000000f842a00000000000000000000000000000000000000000000000000000000000000000a00100000000000000000000000000000000000000000000000000000000000000f859940200000000000000000000000000000000000000f842a00000000000000000000000000000000000000000000000000000000000000000a00200000000000000000000000000000000000000000000000000000000000000f859940300000000000000000000000000000000000000f842a00000000000000000000000000000000000000000000000000000000000000000a00300000000000000000000000000000000000000000000000000000000000000f859940400000000000000000000000000000000000000f842a00000000000000000000000000000000000000000000000000000000000000000a00400000000000000000000000000000000000000000000000000000000000000f859940500000000000000000000000000000000000000f842a00000000000000000000000000000000000000000000000000000000000000000a0050000000000000000000000000000000000000000000000000000000000000080a04c38274334089ba26be1ab238d9fe74e0e2e12d746f458fe5711f48f51842b6ba0222563aefd3f81edc662de7b039aa61b189404451201f3a28471f34dbfefac71f8601b0a8301e24194000000000000000000000000000000000000aaaa808026a072b8abde69e482a1cb7c88df29ef92502f35b070c0d19b2a1b646b1dbf0d898ca069f1474f53b876d271e3ec33cbaad5204b381e4ebc4ea1cd343ac6930d0ea2a7c0",
  "json": {
    "header": {
      "parentHash": "0x5ddaed99af17f5dce831bdb5f07a90ddf2cf530951e33da434a35985aa42c6c3",
      "sha3Uncles": "0x1dcc4de8dec75d7aab85b567b6ccd41ad312451b948a7413f0a142fd40d49347",
      "miner": "0x0100000000000000000000000000000000000000",
      "stateRoot": "0xdd07cac1fd50a2d47b3faf9514b2a3e385fcd6e3102760f6bea1f919515cacff",
      "transactionsRoot": "0x637d26d4cecdd55c7927c6d203ce40b7d9faf363fff990c3fc5e502f5edc1ead",
      "receiptsRoot": "0xed9cc53fd0eee79528719ca973156891c6be9ddfe7bb9a788d4a3bc1d261773b",
      "logsBloom": "0x00000000000000000000000000000000000000000000000000000000000000000000000000000000000000000000000000000000000000000000000000000000000000000000000000000000000000000000000000000000000000000000000000000000000000000000000000000000000000000000000000000000000000000000000000000000000000000000000000000000000000000000000000000000000000000000000000000000000000000000000000000000000000000000000000000000000000000000000000000000000000000000000000000000000000000000000000000000000000000000000000000000000000000000000000000000",
      "difficulty": "0x20000",
      "number": "0x7",
      "gasLimit": "0x47e7c4",
      "gasUsed": "0x61bf2",
      "timestamp": "0x46",
      "extraData": "0x",
      "mixHash": "0x0000000000000000000000000000000000000000000000000000000000000000",
      "nonce": "0x0000000000000000",
      "hash": "0x85a3ba47b898ffb9f4d3a286c438fdbae8f948acca51b69ba86e21e9b852c4a2"
    },
    "transactions": [
      {
        "type": "0x1",
        "chainId": "0x1",
        "nonce": "0x15",
        "gasPrice": "0xa",
        "gas": "0x1e241",
        "to": "0x000000000000000000000000000000000000aaaa",
        "value": "0x0",
        "input": "0x",
        "accessList": [
          {
            "address": "0x0000000000000000000000000000000000000000",
            "storageKeys": [
              "0x0000000000000000000000000000000000000000000000000000000000000000",
              "0x0000000000000000000000000000000000000000000000000000000000000000"
            ]
          },
          {
            "address": "0x0100000000000000000000000000000000000000",
            "storageKeys": [
              "0x0000000000000000000000000000000000000000000000000000000000000000",
              "0x0100000000000000000000000000000000000000000000000000000000000000"
            ]
          },
          {
            "address": "0x0200000000000000000000000000000000000000",
            "storageKeys": [
              "0x0000000000000000000000000000000000000000000000000000000000000000",
              "0x0200000000000000000000000000000000000000000000000000000000000000"
            ]
          },
          {
            "address": "0x0300000000000000000000000000000000000000",
            "storageKeys": [
              "0x0000000000000000000000000000000000000000000000000000000000000000",
              "0x0300000000000000000000000000000000000000000000000000000000000000"
            ]
          },
          {
            "address": "0x0400000000000000000000000000000000000000",
            "storageKeys": [
              "0x0000000000000000000000000000000000000000000000000000000000000000",
              "0x0400000000000000000000000000000000000000000000000000000000000000"
            ]
          },
          {
            "address": "0x0500000000000000000000000000000000000000",
            "storageKeys": [
              "0x0000000000000000000000000000000000000000000000000000000000000000",
              "0x0500000000000000000000000000000000000000000000000000000000000000"
            ]
          }
        ],
        "v": "0x0",
        "r": "0x69e444997b9e7db9d3c351acb17da1666358ec8ce1fe34e6084f7347bfcfa83a",
        "s": "0x64e539a2efbab6c0ec01f1d6d38bf97218a3e42db66a84e35945f65afc4af52c",
        "hash": "0x479eba011395274523b321f282bdad6374850bc40749047a9278e122b38d4aaf"
      },
      {
        "type": "0x1",
        "chainId": "0x1",
        "nonce": "0x16",
        "gasPrice": "0xa",
        "gas": "0x1e241",
        "to": "0x000000000000000000000000000000000000aaaa",
        "value": "0x0",
        "input": "0x",
        "accessList": [
          {
            "address": "0x0000000000000000000000000000000000000000",
            "storageKeys": [
              "0x0000000000000000000000000000000000000000000000000000000000000000",
              "0x0000000000000000000000000000000000000000000000000000000000000000"
            ]
          },
          {
            "address": "0x0100000000000000000000000000000000000000",
            "storageKeys": [
              "0x0000000000000000000000000000000000000000000000000000000000000000",
              "0x0100000000000000000000000000000000000000000000000000000000000000"
            ]
          },
          {
            "address": "0x0200000000000000000000000000000000000000",
            "storageKeys": [
              "0x0000000000000000000000000000000000000000000000000000000000000000",
              "0x0200000000000000000000000000000000000000000000000000000000000000"
            ]
          },
          {
            "address": "0x0300000000000000000000000000000000000000",
            "storageKeys": [
              "0x0000000000000000000000000000000000000000000000000000000000000000",
              "0x0300000000000000000000000000000000000000000000000000000000000000"
            ]
          },
          {
            "address": "0x0400000000000000000000000000000000000000",
            "storageKeys": [
              "0x0000000000000000000000000000000000000000000000000000000000000000",
              "0x0400000000000000000000000000000000000000000000000000000000000000"
            ]
          },
          {
            "address": "0x0500000000000000000000000000000000000000",
            "storageKeys": [
              "0x0000000000000000000000000000000000000000000000000000000000000000",
              "0x0500000000000000000000000000000000000000000000000000000000000000"
            ]
          }
        ],
        "v": "0x0",
        "r": "0xa3290dc9c69c2ddd720698de596e2585102f14a5fafa3332abb0fe3e7857a58b",
        "s": "0xad0540e2e37a1fc9a0c03b3a69c420210f86331641c4ee8cf8005cd44db7b5e",
        "hash": "0x84c8d5f6e8a706a936b12d149ef7228484cdb6cc7bdbef7a6bbc3092e3e0842c"
      },
      {
        "type": "0x1",
        "chainId": "0x1",
        "nonce": "0x17",
        "gasPrice": "0xa",
        "gas": "0x1e241",
        "to": "0x000000000000000000000000000000000000aaaa",
        "value": "0x0",
        "input": "0x",
        "accessList": [
          {
            "address": "0x0000000000000000000000000000000000000000",
            "storageKeys": [
              "0x0000000000000000000000000000000000000000000000000000000000000000",
              "0x0000000000000000000000000000000000000000000000000000000000000000"
            ]
          },
          {
            "address": "0x0100000000000000000000000000000000000000",
            "storageKeys": [
              "0x0000000000000000000000000000000000000000000000000000000000000000",
              "0x0100000000000000000000000000000000000000000000000000000000000000"
            ]
          },
          {
            "address": "0x0200000000000000000000000000000000000000",
            "storageKeys": [
              "0x0000000000000000000000000000000000000000000000000000000000000000",
              "0x0200000000000000000000000000000000000000000000000000000000000000"
            ]
          },
          {
            "address": "0x0300000000000000000000000000000000000000",
            "storageKeys": [
              "0x0000000000000000000000000000000000000000000000000000000000000000",
              "0x0300000000000000000000000000000000000000000000000000000000000000"
            ]
          },
          {
            "address": "0x0400000000000000000000000000000000000000",
            "storageKeys": [
              "0x0000000000000000000000000000000000000000000000000000000000000000",
              "0x0400000000000000000000000000000000000000000000000000000000000000"
            ]
          },
          {
            "address": "0x0500000000000000000000000000000000000000",
            "storageKeys": [
              "0x0000000000000000000000000000000000000000000000000000000000000000",
              "0x0500000000000000000000000000000000000000000000000000000000000000"
            ]
          }
        ],
        "v": "0x0",
        "r": "0x423621e9b3b5f003d15cea8eacd765dcbd7b9de4bff637ff57b3c3e184cac5de",
        "s": "0x149abd25789e4ce0a24aa63f230e5afe934ab7d9096db737af7e2d5703914a70",
        "hash": "0x7da302eb420f10e9cf3c121db86496e259ae2b42dccda2de10fefce5d5aa139b"
      },
      {
        "type": "0x1",
        "chainId": "0x1",
        "nonce": "0x18",
        "gasPrice": "0xa",
        "gas": "0x1e241",
        "to": "0x000000000000000000000000000000000000aaaa",
        "value": "0x0",
        "input": "0x",
        "accessList": [
          {
            "address": "0x0000000000000000000000000000000000000000",
            "storageKeys": [
              "0x0000000000000000000000000000000000000000000000000000000000000000",
              "0x0000000000000000000000000000000000000000000000000000000000000000"
            ]
          },
          {
            "address": "0x0100000000000000000000000000000000000000",
            "storageKeys": [
              "0x0000000000000000000000000000000000000000000000000000000000000000",
              "0x0100000000000000000000000000000000000000000000000000000000000000"
            ]
          },
          {
            "address": "0x0200000000000000000000000000000000000000",
            "storageKeys": [
              "0x0000000000000000000000000000000000000000000000000000000000000000",
              "0x0200000000000000000000000000000000000000000000000000000000000000"
            ]
          },
          {
            "address": "0x0300000000000000000000000000000000000000",
            "storageKeys": [
              "0x0000000000000000000000000000000000000000000000000000000000000000",
              "0x0300000000000000000000000000000000000000000000000000000000000000"
            ]
          },
          {
            "address": "0x0400000000000000000000000000000000000000",
            "storageKeys": [
              "0x0000000000000000000000000000000000000000000000000000000000000000",
              "0x0400000000000000000000000000000000000000000000000000000000000000"
            ]
          },
          {
            "address": "0x0500000000000000000000000000000000000000",
            "storageKeys": [
              "0x0000000000000000000000000000000000000000000000000000000000000000",
              "0x0500000000000000000000000000000000000000000000000000000000000000"
            ]
          }
        ],
        "v": "0x0",
        "r": "0x3828c9ac89048c829d2636170dfae92e653be033c684f228fbf5a9bce141fcaa",
        "s": "0x902674169c7dcb2eb4faec66d9ba35c31eb1316755cf19ac82d33358e63fca9",
        "hash": "0xbba5577e03b997efc268fe0912e19e0063750626ce6f9b166066e02e470ac086"
      },
      {
        "type": "0x1",
        "chainId": "0x1",
        "nonce": "0x19",
        "gasPrice": "0xa",
        "gas": "0x1e241",
        "to": "0x000000000000000000000000000000000000aaaa",
        "value": "0x0",
        "input": "0x",
        "accessList": [
          {
            "address": "0x0000000000000000000000000000000000000000",
            "storageKeys": [
              "0x0000000000000000000000000000000000000000000000000000000000000000",
              "0x0000000000000000000000000000000000000000000000000000000000000000"
            ]
          },
          {
            "address": "0x0100000000000000000000000000000000000000",
            "storageKeys": [
              "0x0000000000000000000000000000000000000000000000000000000000000000",
              "0x0100000000000000000000000000000000000000000000000000000000000000"
            ]
          },
          {
            "address": "0x0200000000000000000000000000000000000000",
            "storageKeys": [
              "0x0000000000000000000000000000000000000000000000000000000000000000",
              "0x0200000000000000000000000000000000000000000000000000000000000000"
            ]
          },
          {
            "address": "0x0300000000000000000000000000000000000000",
            "storageKeys": [
              "0x0000000000000000000000000000000000000000000000000000000000000000",
              "0x0300000000000000000000000000000000000000000000000000000000000000"
            ]
          },
          {
            "address": "0x0400000000000000000000000000000000000000",
            "storageKeys": [
              "0x0000000000000000000000000000000000000000000000000000000000000000",
              "0x0400000000000000000000000000000000000000000000000000000000000000"
            ]
          },
          {
            "address": "0x0500000000000000000000000000000000000000",
            "storageKeys": [
              "0x0000000000000000000000000000000000000000000000000000000000000000",
              "0x0500000000000000000000000000000000000000000000000000000000000000"
            ]
          }
        ],
        "v": "0x1",
        "r": "0x91d9a0233ab5773c83179adcae0f99f21985e280f44760cb99f91fda53dc1ee6",
        "s": "0x592fde4635dffe070b989902dee4f7a14b2d43410ee4ac2f025d16bfeeccec24",
        "hash": "0x26c52e93b532bca09107f40f9ccf238466f51e15f5ecdc17f9a16eea62087cea"
      },
      {
        "type": "0x1",
        "chainId": "0x1",
        "nonce": "0x1a",
        "gasPrice": "0xa",
        "gas": "0x1e241",
        "to": "0x000000000000000000000000000000000000aaaa",
        "value": "0x0",
        "input": "0x",
        "accessList": [
          {
            "address": "0x0000000000000000000000000000000000000000",
            "storageKeys": [
              "0x0000000000000000000000000000000000000000000000000000000000000000",
              "0x0000000000000000000000000000000000000000000000000000000000000000"
            ]
          },
          {
            "address": "0x0100000000000000000000000000000000000000",
            "storageKeys": [
              "0x0000000000000000000000000000000000000000000000000000000000000000",
              "0x0100000000000000000000000000000000000000000000000000000000000000"
            ]
          },
          {
            "address": "0x0200000000000000000000000000000000000000",
            "storageKeys": [
              "0x0000000000000000000000000000000000000000000000000000000000000000",
              "0x0200000000000000000000000000000000000000000000000000000000000000"
            ]
          },
          {
            "address": "0x0300000000000000000000000000000000000000",
            "storageKeys": [
              "0x0000000000000000000000000000000000000000000000000000000000000000",
              "0x0300000000000000000000000000000000000000000000000000000000000000"
            ]
          },
          {
            "address": "0x0400000000000000000000000000000000000000",
            "storageKeys": [
              "0x0000000000000000000000000000000000000000000000000000000000000000",
              "0x0400000000000000000000000000000000000000000000000000000000000000"
            ]
          },
          {
            "address": "0x0500000000000000000000000000000000000000",
            "storageKeys": [
              "0x0000000000000000000000000000000000000000000000000000000000000000",
              "0x0500000000000000000000000000000000000000000000000000000000000000"
            ]
          }
        ],
        "v": "0x0",
        "r": "0x4c38274334089ba26be1ab238d9fe74e0e2e12d746f458fe5711f48f51842b6b",
        "s": "0x222563aefd3f81edc662de7b039aa61b189404451201f3a28471f34dbfefac71",
        "hash": "0x5ba61c8fabacaa0e87f207125bf3a25a784a6f429aa2ae1f76ffe95c9a34eb54"
      },
      {
        "type": "0x0",
        "chainId": null,
        "nonce": "0x1b",
        "gasPrice": "0xa",
        "gas": "0x1e241",
        "to": "0x000000000000000000000000000000000000aaaa",
        "value": "0x0",
        "input": "0x",
        "accessList": null,
        "v": "0x26",
        "r": "0x72b8abde69e482a1cb7c88df29ef92502f35b070c0d19b2a1b646b1dbf0d898c",
        "s": "0x69f1474f53b876d271e3ec33cbaad5204b381e4ebc4ea1cd343ac6930d0ea2a7",
        "hash": "0xfa60faf2f9a1f4cbf19ba6ba746e0c633ba5fe2957f08be0dbc2c883039029ba"
      }
    ],
    "uncles": null,
    "receipts": null
  }
}