{
  "rlp": "f906d3f901f6a06e9b1043fdb0e72356fbfe34d83f96d8850f573d806e860ab2beade9666290faa01dcc4de8dec75d7aab85b567b6ccd41ad312451b948a7413f0a142fd40d49347940100000000000000000000000000000000000000a0e80199c64d2bee27c7a1be67fe8b01020a9231e172da0d6fabca44d98864a5d4a08c70cadb678d31ea2a57b14ae2e7eaab22c7a816f5d3ee94091db45f1a4af49ea0aa5401f56c2e0708e601d13442bf1827d6554607ef573f08f8d2ebf51e948dd8b901000000000000000000000000000000000000000000000000000000000000000000000000000000000000000000000000000000000000000000000000000000000000000000000000000000000000000000000000000000000000000000000000000000000000000000000000000000000000000000000000000000000000000000000000000000000000000000000000000000000000000000000000000000000000000000000000000000000000000000000000000000000000000000000000000000000000000000000000000000000000000000000000000000000000000000000000000000000000000000000000000000000000000000000000000000000083020000048347e7c4830265702880a00000000000000000000000000000000000000000000000000000000000000000880000000000000000f904d6b9017901f9017501060a8301e24194000000000000000000000000000000000000aaaa8080f90111f859940000000000000000000000000000000000000000f842a00000000000000000000000000000000000000000000000000000000000000000a00000000000000000000000000000000000000000000000000000000000000000f859940100000000000000000000000000000000000000f842a00000000000000000000000000000000000000000000000000000000000000000a00100000000000000000000000000000000000000000000000000000000000000f859940200000000000000000000000000000000000000f842a00000000000000000000000000000000000000000000000000000000000000000a0020000000000000000000000000000000000000000000000000000000000000001a07e3e6761f5735046aa7c8c495159186e0e017c7cad769757d3b993fcf84bb936a0503471fceed0db87a3c62f8686c09eab381354506c648ad2ea46d9076b87664eb9017901f9017501070a8301e24194000000000000000000000000000000000000aaaa8080f90111f859940000000000000000000000000000000000000000f842a00000000000000000000000000000000000000000000000000000000000000000a00000000000000000000000000000000000000000000000000000000000000000f859940100000000000000000000000000000000000000f842a00000000000000000000000000000000000000000000000000000000000000000a00100000000000000000000000000000000000000000000000000000000000000f859940200000000000000000000000000000000000000f842a00000000000000000000000000000000000000000000000000000000000000000a0020000000000000000000000000000000000000000000000000000000000000001a076012a1e4b16f5bc566caf00e901121c3b55bc26a225d772dad4858cd9aeadcca00ea768134e684c0561b0b22e0c7db3246fafb82c56bc0e7d58aed1c7e67ef423b9017901f9017501080a8301e24194000000000000000000000000000000000000aaaa8080f90111f859940000000000000000000000000000000000000000f842a00000000000000000000000000000000000000000000000000000000000000000a00000000000000000000000000000000000000000000000000000000000000000f859940100000000000000000000000000000000000000f842a00000000000000000000000000000000000000000000000000000000000000000a00100000000000000000000000000000000000000000000000000000000000000f859940200000000000000000000000000000000000000f842a00000000000000000000000000000000000000000000000000000000000000000a0020000000000000000000000000000000000000000000000000000000000000001a0d4a82519d087bbce6e55aaa4775ad916200ab69b47a472e28837956c24f40feea04cf399e1fb199615600b77c9601dcbc7bc41b25dc4351842a36aa69ce597ee9bf860090a8301e24194000000000000000000000000000000000000aaaa808025a0c1761a83dfd95d3c129280692c9fecb528a914d5c6441fe55eb942e58aa066b0a0605fc74c46a2a75de2e05c03d11518930b809c504833152116c8ccfb8685986ec0",
  "json": {
    "header": {
      "parentHash": "0x6e9b1043fdb0e72356fbfe34d83f96d8850f573d806e860ab2beade9666290fa",
      "sha3Uncles": "0x1dcc4de8dec75d7aab85b567b6ccd41ad312451b948a7413f0a142fd40d49347",
      "miner": "0x0100000000000000000000000000000000000000",
      "stateRoot": "0xe80199c64d2bee27c7a1be67fe8b01020a9231e172da0d6fabca44d98864a5d4",
      "transactionsRoot": "0x8c70cadb678d31ea2a57b14ae2e7eaab22c7a816f5d3ee94091db45f1a4af49e",
      "receiptsRoot": "0xaa5401f56c2e0708e601d13442bf1827d6554607ef573f08f8d2ebf51e948dd8",
      "logsBloom": "0x00000000000000000000000000000000000000000000000000000000000000000000000000000000000000000000000000000000000000000000000000000000000000000000000000000000000000000000000000000000000000000000000000000000000000000000000000000000000000000000000000000000000000000000000000000000000000000000000000000000000000000000000000000000000000000000000000000000000000000000000000000000000000000000000000000000000000000000000000000000000000000000000000000000000000000000000000000000000000000000000000000000000000000000000000000000",
      "difficulty": "0x20000",
      "number": "0x4",
      "gasLimit": "0x47e7c4",
      "gasUsed": "0x26570",
      "timestamp": "0x28",
      "extraData": "0x",
      "mixHash": "0x0000000000000000000000000000000000000000000000000000000000000000",
      "nonce": "0x0000000000000000",
      "hash": "0x160a6eff205005f7e0dc27006b58e64e37b88592077debbc30b44589dbb95a95"
    },
    "transactions": [
      {
        "type": "0x1",
        "chainId": "0x1",
        "nonce": "0x6",
        "gasPrice": "0xa",
        "gas": "0x1e241",
        "to": "0x000000000000000000000000000000000000aaaa",
        "value": "0x0",
        "input": "0x",
        "accessList": [
          {
            "address": "0x0000000000000000000000000000000000000000",
            "storageKeys": [
              "0x0000000000000000000000000000000000000000000000000000000000000000",
              "0x0000000000000000000000000000000000000000000000000000000000000000"
            ]
          },
          {
            "address": "0x0100000000000000000000000000000000000000",
            "storageKeys": [
              "0x0000000000000000000000000000000000000000000000000000000000000000",
              "0x0100000000000000000000000000000000000000000000000000000000000000"
            ]
          },
          {
            "address": "0x0200000000000000000000000000000000000000",
            "storageKeys": [
              "0x0000000000000000000000000000000000000000000000000000000000000000",
              "0x0200000000000000000000000000000000000000000000000000000000000000"
            ]
          }
        ],
        "v": "0x1",
        "r": "0x7e3e6761f5735046aa7c8c495159186e0e017c7cad769757d3b993fcf84bb936",
        "s": "0x503471fceed0db87a3c62f8686c09eab381354506c648ad2ea46d9076b87664e",
        "hash": "0x4f66c5df18e409248018353adfe21033c44badfe7083a6980f574aff886dae3e"
      },
      {
        "type": "0x1",
        "chainId": "0x1",
        "nonce": "0x7",
        "gasPrice": "0xa",
        "gas": "0x1e241",
        "to": "0x000000000000000000000000000000000000aaaa",
        "value": "0x0",
        "input": "0x",
        "accessList": [
          {
            "address": "0x0000000000000000000000000000000000000000",
            "storageKeys": [
              "0x0000000000000000000000000000000000000000000000000000000000000000",
              "0x0000000000000000000000000000000000000000000000000000000000000000"
            ]
          },
          {
            "address": "0x0100000000000000000000000000000000000000",
            "storageKeys": [
              "0x0000000000000000000000000000000000000000000000000000000000000000",
              "0x0100000000000000000000000000000000000000000000000000000000000000"
            ]
          },
          {
            "address": "0x0200000000000000000000000000000000000000",
            "storageKeys": [
              "0x0000000000000000000000000000000000000000000000000000000000000000",
              "0x0200000000000000000000000000000000000000000000000000000000000000"
            ]
          }
        ],
        "v": "0x1",
        "r": "0x76012a1e4b16f5bc566caf00e901121c3b55bc26a225d772dad4858cd9aeadcc",
        "s": "0xea768134e684c0561b0b22e0c7db3246fafb82c56bc0e7d58aed1c7e67ef423",
        "hash": "0xf90baa5007a69f5469b887e2d2a7f817bb274ce841ec5afc5f45f8c7bc6be0b5"
      },
      {
        "type": "0x1",
        "chainId": "0x1",
        "nonce": "0x8",
        "gasPrice": "0xa",
        "gas": "0x1e241",
        "to": "0x000000000000000000000000000000000000aaaa",
        "value": "0x0",
        "input": "0x",
        "accessList": [
          {
            "address": "0x0000000000000000000000000000000000000000",
            "storageKeys": [
              "0x0000000000000000000000000000000000000000000000000000000000000000",
              "0x0000000000000000000000000000000000000000000000000000000000000000"
            ]
          },
          {
            "address": "0x0100000000000000000000000000000000000000",
            "storageKeys": [
              "0x0000000000000000000000000000000000000000000000000000000000000000",
              "0x0100000000000000000000000000000000000000000000000000000000000000"
            ]
          },
          {
            "address": "0x0200000000000000000000000000000000000000",
            "storageKeys": [
              "0x0000000000000000000000000000000000000000000000000000000000000000",
              "0x0200000000000000000000000000000000000000000000000000000000000000"
            ]
          }
        ],
        "v": "0x1",
        "r": "0xd4a82519d087bbce6e55aaa4775ad916200ab69b47a472e28837956c24f40fee",
        "s": "0x4cf399e1fb199615600b77c9601dcbc7bc41b25dc4351842a36aa69ce597ee9b",
        "hash": "0x251d97291fa072eff47197043843376c29efc4fcd6b23d78867d6225e6ccdcaa"
      },
      {
        "type": "0x0",
        "chainId": null,
        "nonce": "0x9",
        "gasPrice": "0xa",
        "gas": "0x1e241",
        "to": "0x000000000000000000000000000000000000aaaa",
        "value": "0x0",
        "input": "0x",
        "accessList": null,
        "v": "0x25",
        "r": "0xc1761a83dfd95d3c129280692c9fecb528a914d5c6441fe55eb942e58aa066b0",
        "s": "0x605fc74c46a2a75de2e05c03d11518930b809c504833152116c8ccfb8685986e",
        "hash": "0xdd8271981828697d28de1c2d1148458a30c5e86464484f1695ff21e56d83bc91"
      }
    ],
    "uncles": null,
    "receipts": null
  }
}