{
  "rlp": "f90d59f901f6a0e5c7fd187ef4075bb9a3bd160b0e568be53ea693b284d20936277c249797f881a01dcc4de8dec75d7aab85b567b6ccd41ad312451b948a7413f0a142fd40d49347940100000000000000000000000000000000000000a07f2172fc6b1093884e559297c4161da6687ccf9405841d5e5cb79566e1698540a0f881eb8830d5ed90a6d1de5ef56dbd715bf679721aa70ccc2fde6050558fe065a03c399ef07b92c03dd962c9b51708ec00bfa279dad6afda270f332f79e3e60db4b901000000000000000000000000000000000000000000000000000000000000000000000000000000000000000000000000000000000000000000000000000000000000000000000000000000000000000000000000000000000000000000000000000000000000000000000000000000000000000000000000000000000000000000000000000000000000000000000000000000000000000000000000000000000000000000000000000000000000000000000000000000000000000000000000000000000000000000000000000000000000000000000000000000000000000000000000000000000000000000000000000000000000000000000000000000000083020000068347e7c48304aeac3c80a00000000000000000000000000000000000000000000000000000000000000000880000000000000000f90b5cb9022f01f9022b010f0a8301e24194000000000000000000000000000000000000aaaa8080f901c7f859940000000000000000000000000000000000000000f842a00000000000000000000000000000000000000000000000000000000000000000a00000000000000000000000000000000000000000000000000000000000000000f859940100000000000000000000000000000000000000f842a00000000000000000000000000000000000000000000000000000000000000000a00100000000000000000000000000000000000000000000000000000000000000f859940200000000000000000000000000000000000000f842a00000000000000000000000000000000000000000000000000000000000000000a00200000000000000000000000000000000000000000000000000000000000000f859940300000000000000000000000000000000000000f842a00000000000000000000000000000000000000000000000000000000000000000a00300000000000000000000000000000000000000000000000000000000000000f859940400000000000000000000000000000000000000f842a00000000000000000000000000000000000000000000000000000000000000000a0040000000000000000000000000000000000000000000000000000000000000001a0cfbef0051e5b8a313532cc98410f5135948915a3d046ac28083d0d8f0fdfa660a05520ab4a5ce35c1d8c70cff148eefe0a2833ba0ed6f2781f839cc7edc8bf575eb9022f01f9022b01100a8301e24194000000000000000000000000000000000000aaaa8080f901c7f859940000000000000000000000000000000000000000f842a00000000000000000000000000000000000000000000000000000000000000000a00000000000000000000000000000000000000000000000000000000000000000f859940100000000000000000000000000000000000000f842a00000000000000000000000000000000000000000000000000000000000000000a00100000000000000000000000000000000000000000000000000000000000000f859940200000000000000000000000000000000000000f842a00000000000000000000000000000000000000000000000000000000000000000a00200000000000000000000000000000000000000000000000000000000000000f859940300000000000000000000000000000000000000f842a00000000000000000000000000000000000000000000000000000000000000000a00300000000000000000000000000000000000000000000000000000000000000f859940400000000000000000000000000000000000000f842a00000000000000000000000000000000000000000000000000000000000000000a0040000000000000000000000000000000000000000000000000000000000000080a0d42a5ec165486f09e6d8faf3a93c87c4f0cc6b4d15ebbc2dedca7e4ef35a4555a00c129f489b2213092f5863b7a936ece05bdcb26a4513603c9f4b84ab0d9acd15b9022f01f9022b01110a8301e24194000000000000000000000000000000000000aaaa8080f901c7f859940000000000000000000000000000000000000000f842a00000000000000000000000000000000000000000000000000000000000000000a00000000000000000000000000000000000000000000000000000000000000000f859940100000000000000000000000000000000000000f842a00000000000000000000000000000000000000000000000000000000000000000a00100000000000000000000000000000000000000000000000000000000000000f859940200000000000000000000000000000000000000f842a00000000000000000000000000000000000000000000000000000000000000000a00200000000000000000000000000000000000000000000000000000000000000f859940300000000000000000000000000000000000000f842a00000000000000000000000000000000000000000000000000000000000000000a00300000000000000000000000000000000000000000000000000000000000000f859940400000000000000000000000000000000000000f842a00000000000000000000000000000000000000000000000000000000000000000a0040000000000000000000000000000000000000000000000000000000000000001a0307eb02650c740c599c347d7dad1b390fa8dc24d216eb2ba769dc711aae32789a077af8cfb89aa87266d3b691ddb75be4221fb2b188e1c4470daaa707d44161200b9022f01f9022b01120a8301e24194000000000000000000000000000000000000aaaa8080f901c7f859940000000000000000000000000000000000000000f842a00000000000000000000000000000000000000000000000000000000000000000a00000000000000000000000000000000000000000000000000000000000000000f859940100000000000000000000000000000000000000f842a00000000000000000000000000000000000000000000000000000000000000000a00100000000000000000000000000000000000000000000000000000000000000f859940200000000000000000000000000000000000000f842a00000000000000000000000000000000000000000000000000000000000000000a00200000000000000000000000000000000000000000000000000000000000000f859940300000000000000000000000000000000000000f842a00000000000000000000000000000000000000000000000000000000000000000a00300000000000000000000000000000000000000000000000000000000000000f859940400000000000000000000000000000000000000f842a00000000000000000000000000000000000000000000000000000000000000000a0040000000000000000000000000000000000000000000000000000000000000080a044ef64e26f79482731ceaef418439ebb497806df367f598ebf5d9981f5414a4da04b0d7d566fb8e7cba207385fdad173c9f961fe23fe3961e07c4a31df20c31a03b9022f01f9022b01130a8301e24194000000000000000000000000000000000000aaaa8080f901c7f859940000000000000000000000000000000000000000f842a00000000000000000000000000000000000000000000000000000000000000000a00000000000000000000000000000000000000000000000000000000000000000f859940100000000000000000000000000000000000000f842a00000000000000000000000000000000000000000000000000000000000000000a00100000000000000000000000000000000000000000000000000000000000000f859940200000000000000000000000000000000000000f842a00000000000000000000000000000000000000000000000000000000000000000a00200000000000000000000000000000000000000000000000000000000000000f859940300000000000000000000000000000000000000f842a00000000000000000000000000000000000000000000000000000000000000000a00300000000000000000000000000000000000000000000000000000000000000f859940400000000000000000000000000000000000000f842a00000000000000000000000000000000000000000000000000000000000000000a0040000000000000000000000000000000000000000000000000000000000000001a078688c9ef5a7925528910547dc39f1b359a5e230f850310f599098c32876443ea06462d6bc2778d84c5af517d383483e0685b8fccbd424196951c1e509964a27e0f860140a8301e24194000000000000000000000000000000000000aaaa808025a0ec8f9c89aa1f4f795d8b45ff41c871721d994858a1374411c4878532001a4ba5a027f11a383c603c28321baad48830d6090c9b0164e2d26d632a73ecd809ae53c7c0",
  "json": {
    "header": {
      "parentHash": "0xe5c7fd187ef4075bb9a3bd160b0e568be53ea693b284d20936277c249797f881",
      "sha3Uncles": "0x1dcc4de8dec75d7aab85b567b6ccd41ad312451b948a7413f0a142fd40d49347",
      "miner": "0x0100000000000000000000000000000000000000",
      "stateRoot": "0x7f2172fc6b1093884e559297c4161da6687ccf9405841d5e5cb79566e1698540",
      "transactionsRoot": "0xf881eb8830d5ed90a6d1de5ef56dbd715bf679721aa70ccc2fde6050558fe065",
      "receiptsRoot": "0x3c399ef07b92c03dd962c9b51708ec00bfa279dad6afda270f332f79e3e60db4",
      "logsBloom": "0x00000000000000000000000000000000000000000000000000000000000000000000000000000000000000000000000000000000000000000000000000000000000000000000000000000000000000000000000000000000000000000000000000000000000000000000000000000000000000000000000000000000000000000000000000000000000000000000000000000000000000000000000000000000000000000000000000000000000000000000000000000000000000000000000000000000000000000000000000000000000000000000000000000000000000000000000000000000000000000000000000000000000000000000000000000000",
      "difficulty": "0x20000",
      "number": "0x6",
      "gasLimit": "0x47e7c4",
      "gasUsed": "0x4aeac",
      "timestamp": "0x3c",
      "extraData": "0x",
      "mixHash": "0x0000000000000000000000000000000000000000000000000000000000000000",
      "nonce": "0x0000000000000000",
      "hash": "0x5ddaed99af17f5dce831bdb5f07a90ddf2cf530951e33da434a35985aa42c6c3"
    },
    "transactions": [
      {
        "type": "0x1",
        "chainId": "0x1",
        "nonce": "0xf",
        "gasPrice": "0xa",
        "gas": "0x1e241",
        "to": "0x000000000000000000000000000000000000aaaa",
        "value": "0x0",
        "input": "0x",
        "accessList": [
          {
            "address": "0x0000000000000000000000000000000000000000",
            "storageKeys": [
              "0x0000000000000000000000000000000000000000000000000000000000000000",
              "0x0000000000000000000000000000000000000000000000000000000000000000"
            ]
          },
          {
            "address": "0x0100000000000000000000000000000000000000",
            "storageKeys": [
              "0x0000000000000000000000000000000000000000000000000000000000000000",
              "0x0100000000000000000000000000000000000000000000000000000000000000"
            ]
          },
          {
            "address": "0x0200000000000000000000000000000000000000",
            "storageKeys": [
              "0x0000000000000000000000000000000000000000000000000000000000000000",
              "0x0200000000000000000000000000000000000000000000000000000000000000"
            ]
          },
          {
            "address": "0x0300000000000000000000000000000000000000",
            "storageKeys": [
              "0x0000000000000000000000000000000000000000000000000000000000000000",
              "0x0300000000000000000000000000000000000000000000000000000000000000"
            ]
          },
          {
            "address": "0x0400000000000000000000000000000000000000",
            "storageKeys": [
              "0x0000000000000000000000000000000000000000000000000000000000000000",
              "0x0400000000000000000000000000000000000000000000000000000000000000"
            ]
          }
        ],
        "v": "0x1",
        "r": "0xcfbef0051e5b8a313532cc98410f5135948915a3d046ac28083d0d8f0fdfa660",
        "s": "0x5520ab4a5ce35c1d8c70cff148eefe0a2833ba0ed6f2781f839cc7edc8bf575e",
        "hash": "0x8bc25d0f8a8a24ba715fdd3f29e7f7302befa1446b4736538d45e3862cf67631"
      },
      {
        "type": "0x1",
        "chainId": "0x1",
        "nonce": "0x10",
        "gasPrice": "0xa",
        "gas": "0x1e241",
        "to": "0x000000000000000000000000000000000000aaaa",
        "value": "0x0",
        "input": "0x",
        "accessList": [
          {
            "address": "0x0000000000000000000000000000000000000000",
            "storageKeys": [
              "0x0000000000000000000000000000000000000000000000000000000000000000",
              "0x0000000000000000000000000000000000000000000000000000000000000000"
            ]
          },
          {
            "address": "0x0100000000000000000000000000000000000000",
            "storageKeys": [
              "0x0000000000000000000000000000000000000000000000000000000000000000",
              "0x0100000000000000000000000000000000000000000000000000000000000000"
            ]
          },
          {
            "address": "0x0200000000000000000000000000000000000000",
            "storageKeys": [
              "0x0000000000000000000000000000000000000000000000000000000000000000",
              "0x0200000000000000000000000000000000000000000000000000000000000000"
            ]
          },
          {
            "address": "0x0300000000000000000000000000000000000000",
            "storageKeys": [
              "0x0000000000000000000000000000000000000000000000000000000000000000",
              "0x0300000000000000000000000000000000000000000000000000000000000000"
            ]
          },
          {
            "address": "0x0400000000000000000000000000000000000000",
            "storageKeys": [
              "0x0000000000000000000000000000000000000000000000000000000000000000",
              "0x0400000000000000000000000000000000000000000000000000000000000000"
            ]
          }
        ],
        "v": "0x0",
        "r": "0xd42a5ec165486f09e6d8faf3a93c87c4f0cc6b4d15ebbc2dedca7e4ef35a4555",
        "s": "0xc129f489b2213092f5863b7a936ece05bdcb26a4513603c9f4b84ab0d9acd15",
        "hash": "0x96132f15280252a7ca473a4a5f4c126f610d34f2007cda6b0007a003ef6fd6ec"
      },
      {
        "type": "0x1",
        "chainId": "0x1",
        "nonce": "0x11",
        "gasPrice": "0xa",
        "gas": "0x1e241",
        "to": "0x000000000000000000000000000000000000aaaa",
        "value": "0x0",
        "input": "0x",
        "accessList": [
          {
            "address": "0x0000000000000000000000000000000000000000",
            "storageKeys": [
              "0x0000000000000000000000000000000000000000000000000000000000000000",
              "0x0000000000000000000000000000000000000000000000000000000000000000"
            ]
          },
          {
            "address": "0x0100000000000000000000000000000000000000",
            "storageKeys": [
              "0x0000000000000000000000000000000000000000000000000000000000000000",
              "0x0100000000000000000000000000000000000000000000000000000000000000"
            ]
          },
          {
            "address": "0x0200000000000000000000000000000000000000",
            "storageKeys": [
              "0x0000000000000000000000000000000000000000000000000000000000000000",
              "0x0200000000000000000000000000000000000000000000000000000000000000"
            ]
          },
          {
            "address": "0x0300000000000000000000000000000000000000",
            "storageKeys": [
              "0x0000000000000000000000000000000000000000000000000000000000000000",
              "0x0300000000000000000000000000000000000000000000000000000000000000"
            ]
          },
          {
            "address": "0x0400000000000000000000000000000000000000",
            "storageKeys": [
              "0x0000000000000000000000000000000000000000000000000000000000000000",
              "0x0400000000000000000000000000000000000000000000000000000000000000"
            ]
          }
        ],
        "v": "0x1",
        "r": "0x307eb02650c740c599c347d7dad1b390fa8dc24d216eb2ba769dc711aae32789",
        "s": "0x77af8cfb89aa87266d3b691ddb75be4221fb2b188e1c4470daaa707d44161200",
        "hash": "0x377ead486a6468dcd837e8047543ceb4dfa65684f927eca80f40adf7144dcbba"
      },
      {
        "type": "0x1",
        "chainId": "0x1",
        "nonce": "0x12",
        "gasPrice": "0xa",
        "gas": "0x1e241",
        "to": "0x000000000000000000000000000000000000aaaa",
        "value": "0x0",
        "input": "0x",
        "accessList": [
          {
            "address": "0x0000000000000000000000000000000000000000",
            "storageKeys": [
              "0x0000000000000000000000000000000000000000000000000000000000000000",
              "0x0000000000000000000000000000000000000000000000000000000000000000"
            ]
          },
          {
            "address": "0x0100000000000000000000000000000000000000",
            "storageKeys": [
              "0x0000000000000000000000000000000000000000000000000000000000000000",
              "0x0100000000000000000000000000000000000000000000000000000000000000"
            ]
          },
          {
            "address": "0x0200000000000000000000000000000000000000",
            "storageKeys": [
              "0x0000000000000000000000000000000000000000000000000000000000000000",
              "0x0200000000000000000000000000000000000000000000000000000000000000"
            ]
          },
          {
            "address": "0x0300000000000000000000000000000000000000",
            "storageKeys": [
              "0x0000000000000000000000000000000000000000000000000000000000000000",
              "0x0300000000000000000000000000000000000000000000000000000000000000"
            ]
          },
          {
            "address": "0x0400000000000000000000000000000000000000",
            "storageKeys": [
              "0x0000000000000000000000000000000000000000000000000000000000000000",
              "0x0400000000000000000000000000000000000000000000000000000000000000"
            ]
          }
        ],
        "v": "0x0",
        "r": "0x44ef64e26f79482731ceaef418439ebb497806df367f598ebf5d9981f5414a4d",
        "s": "0x4b0d7d566fb8e7cba207385fdad173c9f961fe23fe3961e07c4a31df20c31a03",
        "hash": "0x3f92ce1202d56635eb6c088f1cd3a6604dae60f3100a68f330d1722c324f2ab4"
      },
      {
        "type": "0x1",
        "chainId": "0x1",
        "nonce": "0x13",
        "gasPrice": "0xa",
        "gas": "0x1e241",
        "to": "0x000000000000000000000000000000000000aaaa",
        "value": "0x0",
        "input": "0x",
        "accessList": [
          {
            "address": "0x0000000000000000000000000000000000000000",
            "storageKeys": [
              "0x0000000000000000000000000000000000000000000000000000000000000000",
              "0x0000000000000000000000000000000000000000000000000000000000000000"
            ]
          },
          {
            "address": "0x0100000000000000000000000000000000000000",
            "storageKeys": [
              "0x0000000000000000000000000000000000000000000000000000000000000000",
              "0x0100000000000000000000000000000000000000000000000000000000000000"
            ]
          },
          {
            "address": "0x0200000000000000000000000000000000000000",
            "storageKeys": [
              "0x0000000000000000000000000000000000000000000000000000000000000000",
              "0x0200000000000000000000000000000000000000000000000000000000000000"
            ]
          },
          {
            "address": "0x0300000000000000000000000000000000000000",
            "storageKeys": [
              "0x0000000000000000000000000000000000000000000000000000000000000000",
              "0x0300000000000000000000000000000000000000000000000000000000000000"
            ]
          },
          {
            "address": "0x0400000000000000000000000000000000000000",
            "storageKeys": [
              "0x0000000000000000000000000000000000000000000000000000000000000000",
              "0x0400000000000000000000000000000000000000000000000000000000000000"
            ]
          }
        ],
        "v": "0x1",
        "r": "0x78688c9ef5a7925528910547dc39f1b359a5e230f850310f599098c32876443e",
        "s": "0x6462d6bc2778d84c5af517d383483e0685b8fccbd424196951c1e509964a27e0",
        "hash": "0x029b987cd062bc3e738d944990266cffeaed74340531450373d34666ad4fabd6"
      },
      {
        "type": "0x0",
        "chainId": null,
        "nonce": "0x14",
        "gasPrice": "0xa",
        "gas": "0x1e241",
        "to": "0x000000000000000000000000000000000000aaaa",
        "value": "0x0",
        "input": "0x",
        "accessList": null,
        "v": "0x25",
        "r": "0xec8f9c89aa1f4f795d8b45ff41c871721d994858a1374411c4878532001a4ba5",
        "s": "0x27f11a383c603c28321baad48830d6090c9b0164e2d26d632a73ecd809ae53c7",
        "hash": "0xc79cc4aae86b02b8b9787867a98670cf6d022af0fee3c0a3abdbddf29f21f7df"
      }
    ],
    "uncles": null,
    "receipts": null
  }
}